:020000040000FA
:100000000C942A0A0C945B0A0C945B0A0C945B0A0D
:100010000C945B0A0C945B0A0C945B0A0C945B0ACC
:100020000C945B0A0C945B0A0C945B0A0C945B0ABC
:100030000C945B0A0C945B0A0C945B0A0C945B0AAC
:100040000C945B0A0C94B6280C945B0A0C945B0A23
:100050000C945B0A0C945B0A0C945B0A0C94BE260D
:100060000C945B0A0C94E4280C945B0A0C945B0AD5
:100070000C945B0A0C945B0A0C945B0A0C945B0A6C
:100080000C9488280C945B0A0C945B0A0C945B0A11
:100090000C945B0A0C945B0A0C945B0A0C94082782
:1000A0000C945B0A0C945B0A0C945A280C945B0A1F
:1000B0000C945B0A0C945B0A0C945B0A0C942C283D
:1000C0000C945B0A0C945B0A0C945B0A0C945B0A1C
:1000D0000C945B0A0C945B0A0C945B0A0C945B0A0C
:1000E0000C945B0A0C94680B0C940A0E0C94350B60
:1000F0000C941B1B0C94760B0C94110E0C945A0B45
:100100000C948B0E0C945E110C9410220C94830CA6
:100110000C946D0C0C943E0E0C94DF300C942B1B45
:100120000C94E31E0C94351C0C943A120C94421C53
:100130000C94321B0C94C6120C94A61B0C94670AE8
:100140000C94131B0C94AB220C94B3180C94070B57
:100150000C94D1190C94FE190C94A2230C94160B38
:100160000C948C220C94150B0C945D0A0C946F2645
:100170000C94A7120C942F220C946C0C0C94D40F9A
:100180000C948E170C9453100C94C31F0C94470BB3
:100190000C945A1B0C9438120C94B01C0C946126CD
:1001A0000C94700B0C94542B0C946D220C94540BE7
:1001B0000C941D170C942B1E0C943F0B0C945E0B8F
:1001C0000C9414110C946C0B0C94430B0C94140BA6
:1001D0000C94C8110C9408230C94620B0C94E80D39
:1001E0000C94F70D0C94C0190C947A0B0C94A51B6D
:1001F0000C944A260C944A0B0C940F1A0C94731C02
:100200000C94750B0C94500B0C94E9110C949319ED
:100210000C94E21D0C944E220C94CA220C942723B9
:100220000C94550F0C94E9220C94171B0C94F1219B
:100230000C9482190C943B0B0C94011E00002000BE
:100240002300260029002C002F00320000010000AE
:1002500003010601090100002100240027002A00F3
:100260002D003000330001010000040107010A01E4
:1002700000002200250028002B002E003100340051
:1002800002010000050108010B0105050505070530
:1002900008080808020202020A0A08080404040402
:1002A000010101010101010103030303030303032E
:1002B000040707070C0C0C0C0C0C0C0C02020202BD
:1002C00006060606060606060B0B0B0B0B0B0B0BA6
:1002D0000102102020080810204010204080020158
:1002E000020108040201010204081020408080403D
:1002F000201008040201800402018040201008043C
:1003000002010804020101020408102040800102D9
:1003100004081020408000000A0B02090C0D0E0892
:1003200007030401000000000000000000000000BE
:1003300000000000000000000000000000000000BD
:10034000000012111000000000000000000000007A
:10035000000000000000000000000000F0000403A6
:100360000505050506161700001700140303DB0832
:100370006710DA100724C04B0201110AA3C44A4ACD
:1003800044854800120AC24948863C58480013096F
:10039000E14D48C2C1C800140AE3444C4A449234B7
:1003A00009150724C04B0201160724C04B02011790
:1003B0000724C04B0201180842484E860400190663
:1003C000004048021A0723C44BC2001B0BA3C44AB7
:1003D0004A44C4444C001C06004048021D0600402C
:1003E00048021E06004048021F0600404802200640
:1003F000004078022110C67E7847D0CC7E242AB3F4
:100400007F211122220D4A417E83A058913F2A8BE1
:10041000002335D146783F40A0D4D8D4D8D4D8D4FE
:10042000D8D4D8D4D8D4D8D4C445C581C48DC58136
:100430009CD4D8D4D8D4D8D4D8D4D8D4D8D4C8C5B7
:10044000071116071100243BF242788BC5C941847D
:100450008D04C5CDD0E0D0E0D0E0D0E0D0E0D0E059
:10046000D0E08144D1C591C581A0D4DCD4DCD4DCFA
:10047000D4DCD4DCD4DCD4CCC5C9C54188C54104A6
:1004800000253FF242788BE941A80485E0D050CCAA
:10049000D08CCCD0C8CCD0C4D090D550D910DD8170
:1004A00044D1C591C581A0D418D554D590D5CCC41C
:1004B000D48CC8D44CCCD4DCC461C441E441040025
:1004C0002633F042788BA92D8564CCA4C8E4C4E41B
:1004D000A96D31E145C9C54184C58198D850D190F5
:1004E000CDD0C9D004C5D0C8C4D08CC4C1D881DC9B
:1004F000412000270801CD5E828402281225EA7976
:10050000538CC8C4129978489911263302291424AF
:10051000CE79438CC804C5884C3C50888485480CEF
:10052000002A2C8FC6789F60CC508CC88CCCC4C855
:10053000CCC5D481DC65D945C50B8B3B59C383B091
:1005400083A189091A9135313372D371002B128F2F
:10055000C6789FF07E7751F1C2E24E78BF8E032CB1
:100560000CC4CC794F888485480C002D0A45C47D85
:1005700042448444022E1889C5B84A44A288247192
:10058000729171729171722111892292002F13ACB4
:1005900061CA6FCAD8C8D878A8D8C8D8C8D85800EF
:1005A0003022C9C6B84A44A28824717291717291EE
:1005B0007172F1307172917172917172211189228F
:1005C0009200310A41DAB982841209053223C9C680
:1005D000B84A44A288A481F12081F12081211189A7
:1005E000229204C68304C683048646248A480233C2
:1005F0001DC7CAB8424492888461D161D161124951
:10060000221286458745874924894802341B49C6FA
:10061000B9429C5C649C5C649C5C4844A288A48154
:10062000F12081F12081013523C9C6B84A44A2884E
:100630002481F12081F12081A11189229206C683B3
:1006400004C683048644248A4802362089C6B842F8
:10065000603C48603C48606844A288247172917193
:1006600072917172211189229200371787C6B9429F
:100670004492888461D161D161F15061D161D161CD
:10068000013825C9C6B84A44A28824717291717292
:100690009171722111892292C4C945C6C945C6C942
:1006A0008544248A4802391F89C6B94A44A288244D
:1006B0007172917172917172211189229206C683B1
:1006C00004C68304063A0A41DAC98284A084003B46
:1006D0001147CE7997D07E150F1A2534332415068D
:1006E0003C152EC67977B0ECE85AE128BB437B0471
:1006F000C2B36C87053D13AF45788749C50B8B7B2B
:10070000FC8488C4A4C4E2003E192DCE7943B0EC29
:1007100028E9AC703C44DDD93D44ACE8E4A86C3039
:10072000003F15CBDE78CB9145D041E07E5321725E
:100730007423B85F4602401889C5BD4A44A2882484
:100740007172917172917172211189229200412D01
:1007500090DAC94B4492884411492292848BC74352
:10076000848BC743848B874424894814912422496D
:10077000B8783C44B8783C44B878004234CEE2C8FB
:100780004344928824114922D2A58A8B078A8B8AF6
:100790008B078A8B8A4B9132225DAAB878A0B8A8C1
:1007A000B878A0B8A838892411492292442401437A
:1007B00029CEDAC84B4492882411492222A4E3812D
:1007C000A3E381A3E3D146C70347C70347C7034455
:1007D00024894812912422014433CEE2C843449232
:1007E0008824114922D2A58A8B078A8B8A8B078A93
:1007F0008B8A8B47131715170F141715170F14171C
:100800001527912422494492882400452DCEDAC828
:100810004B4492882411492222A4E381A3E381A3BB
:10082000E301225246A48B8E078E8E078E8E078898
:10083000481291242249440246248EDAC94B44923C
:10084000882411492222A4E381A3E381A3E30122A6
:100850005246A48B8E078E8E078E8E064733D0DAD3
:10086000C84B4492884411492292C403C4A3880708
:100870008847110F100F1991362249B8783C44B8B7
:10088000783C44B878484492884411492292004800
:100890002450DAC943B8783C44B8783C44B8784826
:1008A0004492884411492292848BC743848BC74366
:1008B000848B074927AC62C9434492880889241174
:1008C000E94162E30163E30163E351C5C603C6C6C0
:1008D000C34424898890481291004A33D0DAC84B27
:1008E00044928844114922D283C403C4A388078850
:1008F00047110F101291362265B8783C44B8783C05
:1009000044B878484492884411492292004B234FBE
:10091000DAC943B4746C4C684C5C78585064506CC1
:1009200078705064503C48585C5868784CB47400F7
:100930004C208EDAC843743C70743C70743CDAE826
:1009400078E0E878E0E8788088241149229244240D
:100950004D274FDAC9434464844464445054504C96
:10096000548C544454584458B4743C8268E9788098
:1009700068E9788068E9004E264FDAC943B47448C4
:100980007044AC4C645068549C545C3C60585C941B
:10099000644C68506C846C443C40B474004F2FD05D
:1009A000DAC84B4492884411492292848BC743840D
:1009B0008BC743848BC72309178F8708178F870836
:1009C000170F89481291282249441200502E90DABC
:1009D000C94B4492884411492292848BC743848B2B
:1009E000C743848B874424894814912422493C407E
:1009F0003C8A78807814F100F1005133D0DAC84B8A
:100A00004492884411492292848BC743848BC74304
:100A1000848BC72309178C8A0C0B8D118D890E09C5
:100A20008E100F89481291282249441200523190A9
:100A3000DAC94B4492884411492292848BC743847B
:100A40008BC743848B874424894814912422493CD2
:100A500040603C40586850683C48E2907800533908
:100A6000D0DAC84B4492884411492292C403C4A3EB
:100A700088078847110F100F129124225144928841
:100A8000F420F100F128E201E251C40384442489F6
:100A90004814912422090054208CE2C943449288CE
:100AA00008892411A962E30163E30163E351C5C628
:100AB00003C6C603C68601552690DAC843B8783CFB
:100AC00044B8783C44B8783C9270F1788870F178FA
:100AD0008870F190882411892292442401561E4E78
:100AE000DAC943743C707470B46848686C745074AC
:100AF00054745C4C644C6C8AD86800572750DAC92F
:100B000043B8783C44B8783C44B8783C9270A9909B
:100B1000A8B090B098B01899B09890D09088D008AC
:100B2000F100581ACCE1CA43A8684858505892C0FE
:100B30009078240943C2128585848A06591A0C626A
:100B4000CA43A8684858505892C0907834B1F18090
:100B5000B1F180B161005A26CCE2C84344928808C2
:100B600089241169D383C5C683C5C623898D078BA4
:100B70008D078B4D91242242224944025B14E95E89
:100B800078CB89C9C5D8BE8B8715DB2F48226A0E62
:100B90005C132CCE7943ACE824E5A86C3C6E44276A
:100BA000598E0A5D14E84A7883890D85D47E160F24
:100BB00028B52F0E2E4C005E0FCCCC794F8C94CCE8
:100BC0001A8A293B4A015F0A45C47D424484440293
:100BD000600A41CA5982841209056121F242788B68
:100BE000C5C94184458404CD01B13F3E20A9907818
:100BF000126171406DEC8FABCB23006221F04A781B
:100C000083C589854508C5C1D4FE3F8BA890BB3CF0
:100C10001093DAFF8B071707170711006320F042C4
:100C2000788BC5C1418485044DC5F4BE9647100F2D
:100C3000203EBDD74714072115071107641FF04A4E
:100C40007883C589854508C5C1D4FE3F8B9347206D
:100C500026B5FF170F2E0E2E0E22006524F04278C7
:100C60008BC5C1418485044DC5F4BE3E0829B93801
:100C700088B038109FDEEB238A83908A83880366CE
:100C80001FF042788BC5C1418485044DC5F4BE3E3A
:100C90000829B93888B038109FDED7E2E200672F04
:100CA000F242788BC5C941848D044DCD3CC03CC017
:100CB0003CC03CC03CC03CC03C8060F149E001B558
:100CC000B11F1F0C1D1C841C1C481C4400681BD237
:100CD0004278837884B4B13F3E20A9907812617144
:100CE000406DEC8FABCB23006919EE4A7883C58148
:100CF0008509C5D9EC3E8E472BBBEF2E282E2A2C1A
:100D00000E6A2CF24278E7AD45EC413CC03CC03C59
:100D1000C03CC03CC03CC03CC03C843C4C3C00B5EA
:100D2000B11F1F0C1D1C841C1C481C44006B26CFCB
:100D3000427883B4F42C69A5E1C4DCC89CCC5CD0B7
:100D400041E05D849DF49CCCDCC81CC5E0A569B184
:100D5000B434006C1AD0427883B8F8F4BE964710C9
:100D60000F203EBDD747140721150711076D25D267
:100D70004278837884F4E981E001D981D184C5CCBB
:100D800088898C8C4DA272799878006A637F5C5D4B
:100D90001E016E2DD24278837884F4ED41E881E41F
:100DA000C1A0C5A089A04D60B93C4C3C00B59D8C4C
:100DB000DD881D85E1C1E481E84170757904006F2B
:100DC00025F242788BC5C94184458404CD01B13FE9
:100DD0002E97878907A036F6E383A1838390830348
:100DE00089830800702EF242788BC5C941844584FE
:100DF00004CD01B13F3E20A99078126171220F31DC
:100E00000F300F300F300F300F300F300F200F2109
:100E10000F01712DF242788BC5C94184458404CD00
:100E200001B13F2E97878907A0B693B11BB1A330BC
:100E30003C983C103D283A38083938903888007280
:100E40002EF242788BC5C94184458404CD01B13F5F
:100E50003E20A99078126171220F3127363735472D
:100E600034483339332A330F200F210F01733BF2FB
:100E700042788BC5C941848D044DCD3CC03CC03CFB
:100E8000C03CC03CC03CC03CC04148D1C591C581BC
:100E90003CC03CC03CC03CC03CC03CC03CC00CD191
:100EA00089C94188C54104007415CECA7883C581BB
:100EB0008509C5D9EC3E8E472BBB1FC701751FD2D4
:100EC0004278837884B4B13F2E97878907A036F69D
:100ED000E383A18383908303898308007624CF4230
:100EE0007883B4F42C69A5E1C4DCC89CCC5C903C4C
:100EF00074B8F44CE088E0C4A06529EDB0B43400C7
:100F00007726D24278837884B4B13F2E97878907B9
:100F1000A0B68991319119B198A138903AA83B981F
:100F20003C08AE2E8F00781B2CCE7943E860D9D1D7
:100F3000C8CC908C584C3CA63152326B28A6EC2879
:100F4000057924B2C278837884B4B13F3E20A99059
:100F50007864712A0F300F300F300F300F300F30A0
:100F60000F300F11097A1FEE4A7883C58185094D2C
:100F700075B0ECE85AE1785C05CB8ECE0A47135188
:100F80009854581C7B15EF4678E3A1E1DDF0BE7B59
:100F9000690F20BC5F1046541E7C0F83DE78C7C1EA
:100FA0000389C083071211007D16EE4A7883A125BC
:100FB00085EC7E1C51787726BBEFCEEE0C017E1AB5
:100FC000C7C6884A449288F45847248988108B0EF3
:100FD0008B0E0B8C481291007F0BC34648C249FE12
:100FE000FF9301800600400802810600400802824B
:100FF00006004008028306004008028406004008FC
:1010000002850600400802860600400802870600A6
:101010004008028806004008028906004008028A4B
:1010200006004008028B06004008028C06004008BB
:10103000028D06004008028E06004008028F06005E
:101040004008029006004008029106004008029203
:10105000060040080293060040080294060040087B
:101060000295060040080296060040080297060016
:101070004008029806004008029906004008029ABB
:1010800006004008029B06004008029C060040083B
:10109000029D06004008029E06004008029F0600CE
:1010A000400802A009E44248C2FF1F04A109E4422B
:1010B00048C2FF1F04A209E44248C2FF1F04A3095B
:1010C000E44248C2FF1F04A409E44248C2FF1F04CF
:1010D000A509E44248C2FF1F04A609E44248C2FF32
:1010E0001F04A709E44248C2FF1F04A809E44248BC
:1010F000C2FF1F04A909E44248C2FF1F04AA09E471
:101100004248C2FF1F04AB09E44248C2FF1F04ACBF
:1011100009E44248C2FF1F04AD09E44248C2FF1F70
:1011200004AE09E44248C2FF1F04AF09E44248C2CA
:10113000FF1F04B009E44248C2FF1F04B109E442A2
:1011400048C2FF1F04B209E44248C2FF1F04B309AA
:10115000E44248C2FF1F04B409E44248C2FF1F042E
:10116000B509E44248C2FF1F04B609E44248C2FF81
:101170001F04B709E44248C2FF1F04B809E442480B
:10118000C2FF1F04B909E44248C2FF1F04BA09E4C0
:101190004248C2FF1F04BB09E44248C2FF1F04BC0F
:1011A00009E44248C2FF1F04BD09E44248C2FF1FD0
:1011B00004BE09E44248C2FF1F04BF09E44248C21A
:1011C000FF1F04C051F542788BC5D541844590047A
:1011D000C5C10CCD104DC94C8DC588CDC1C48A8AFE
:1011E000039189929B354533071215421757111603
:1011F000073262523333364B0E4266260E26260ED7
:1012000022269E8CD8D0CCD41C4CDC1C481C441C00
:101210004C1C8408C109E44248C2FF1F04C209E40F
:101220004248C2FF1F04C309E44248C2FF1F04C46E
:1012300009E44248C2FF1F04C509E44248C2FF1F37
:1012400004C609E44248C2FF1F04C709E44248C279
:10125000FF1F04C809E44248C2FF1F04C909E44251
:1012600048C2FF1F04CA09E44248C2FF1F04CB0959
:10127000E44248C2FF1F04CC09E44248C2FF1F04F5
:10128000CD09E44248C2FF1F04CE09E44248C2FF30
:101290001F04CF09E44248C2FF1F04D009E44248BA
:1012A000C2FF1F04D109E44248C2FF1F04D209E46F
:1012B0004248C2FF1F04D309E44248C2FF1F04D4BE
:1012C00009E44248C2FF1F04D509E44248C2FF1F97
:1012D00004D609E44248C2FF1F04D709E44248C2C9
:1012E000FF1F04D809E44248C2FF1F04D909E442A1
:1012F00048C2FF1F04DA09E44248C2FF1F04DB09A9
:10130000E44248C2FF1F04DC09E44248C2FF1F0454
:10131000DD09E44248C2FF1F04DE09E44248C2FF7F
:101320001F04DF09E44248C2FF1F04E009E4424809
:10133000C2FF1F04E109E44248C2FF1F04E209E4BE
:101340004248C2FF1F04E309E44248C2FF1F04E40D
:1013500009E44248C2FF1F04E509E44248C2FF1FF6
:1013600004E609E44248C2FF1F04E709E44248C218
:10137000FF1F04E809E44248C2FF1F04E909E442F0
:1013800048C2FF1F04EA09E44248C2FF1F04EB09F8
:10139000E44248C2FF1F04EC09E44248C2FF1F04B4
:1013A000ED09E44248C2FF1F04EE09E44248C2FFCF
:1013B0001F04EF09E44248C2FF1F04F009E4424859
:1013C000C2FF1F04F109E44248C2FF1F04F209E40E
:1013D0004248C2FF1F04F309E44248C2FF1F04F45D
:1013E00009E44248C2FF1F04F509E44248C2FF1F56
:1013F00004F609E44248C2FF1F04F709E44248C268
:10140000FF1F04F809E44248C2FF1F04F909E4423F
:1014100048C2FF1F04FA09E44248C2FF1F04FB0947
:10142000E44248C2FF1F04FC09E44248C2FF1F0413
:10143000FD09E44248C2FF1F04FE09E44248C2FF1E
:101440001F04FF09E44248C2FF1F0400000000001F
:10145000542BDF3011241FBECFEFD1E2DEBFCDBF52
:1014600000E00CBF13E0A0E0B2E0E6E7F7E600E042
:101470000BBF02C007900D92AA3EB107D9F72EE02C
:10148000AAEEB3E001C01D92AD31B207E1F71AE058
:10149000C9E2DAE000E006C021970109802FFE01D1
:1014A0000E947B31C832D10780E00807A9F70E946B
:1014B0004E2D0C94A9330C940000662329F06A3059
:1014C00019F0862F90E008958FEF9FEF0895CF9247
:1014D000DF92EF92FF920F931F93CF93DF93EC0174
:1014E000842F8770E1E0F0E0082E01C0EE0F0A942F
:1014F000EAF73E2F7E0199E7E90EF11CD7019C9196
:1015000010E0923018F41E2F913029F150E0487FFE
:10151000E8ADF9ADC880D980D60150969C91949FD2
:101520006001959FD00C11246C0D7D2D711DDF0184
:10153000A60FB71F011115C08C91812B83278D93A6
:101540002150D1F7DF91CF911F910F91FF90EF9034
:10155000DF90CF90089530E0D9CF110F330F2223C1
:1015600089F39C91912B93279C938F5F87702150D7
:101570008111F3CF9CADA90FB11DF701908192307D
:1015800028F4913009F031E011E0E9CF31E0E7CF04
:10159000CF93DF93EC01FC01E55BFF4F11821082DA
:1015A00087E69AE09DAB8CAB79AF68AF4AAF1BAED4
:1015B0003D961082B0961082319681E080833196FC
:1015C00080833FAB2EABD901ED91FC91CE011995F3
:1015D000FE01E95BFF4F10823296108231978FEF48
:1015E000808332968083EEA9FFA90280F381E02DEB
:1015F000CE011995FE01E35BFF4F87E09BE09183ED
:101600008083C55ADF4F1882DF91CF91089580E023
:1016100008958CBD9DBD08959B01DC011896ED9148
:10162000FC9141E067E1199408950895089581506F
:10163000823108F05AC0E82FF0E08827ED5DF44FC2
:101640008F4F0C947B31430B470B350B3B0B3F0B00
:10165000750B4A0B500B540B5A0B5E0B620B680B4D
:101660006C0B750B700B760B7A0B809180008F776B
:10167000809380000895809180008F7DF9CF8091C4
:101680008000877FF5CF84B58F7784BD089584B5BA
:101690008F7DFBCF8091B0008F778093B00008954D
:1016A0008091B0008F7DF9CF809190008F778093EB
:1016B00090000895809190008F7DF9CF80919000E7
:1016C000877FF5CF8091A0008F778093A000089549
:1016D0008091A0008F7DF9CF8091A000877FF5CF0A
:1016E000809120018F7780932001089580912001BF
:1016F0008F7DF9CF80912001877FF5CF1F93CF9306
:10170000DF93282F30E0F901EA5EFC4F8491F90164
:10171000E053FD4FD491F901E657FD4FC491CC231E
:10172000A9F0162F81110E94170BEC2FF0E0EE0F9D
:10173000FF1FE059FD4FA591B4918FB7F894EC913C
:10174000111108C0D095DE23DC938FBFDF91CF91BC
:101750001F910895DE2BF8CFCF93DF9390E0FC012B
:10176000E053FD4F249186579D4FFC0184918823BF
:10177000D1F090E0880F991FFC01EA5AFD4FA59126
:10178000B491FC01E059FD4FC591D491623071F4E0
:101790009FB7F8943C91822F809583238C93E881A6
:1017A0002E2B28839FBFDF91CF9108958FB7F89498
:1017B000EC912E2B2C938FBFF6CF3FB7F8948091EE
:1017C0000C0590910D05A0910E05B0910F0526B561
:1017D000A89B05C02F3F19F00196A11DB11D3FBF69
:1017E000BA2FA92F982F8827BC01CD01620F711D38
:1017F000811D911D42E0660F771F881F991F4A9532
:10180000D1F708958F929F92AF92BF92CF92DF92BD
:10181000EF92FF926B017C010E94DD0B4B015C019A
:10182000C114D104E104F104B9F00E94DD0B681980
:1018300079098A099B09683E73408105910580F307
:1018400021E0C21AD108E108F10888EE880E83E091
:10185000981EA11CB11CE4CFFF90EF90DF90CF90B9
:10186000BF90AF909F908F9008952FB7F89460919C
:1018700008057091090580910A0590910B052FBF0D
:101880000895FC0120812EBD9B012150310941F0BA
:1018900051810DB407FEFDCF4EB55EBD4193F5CF2E
:1018A00061507109860F971F0DB407FEFDCF2EB54D
:1018B000FC0120830895F0E0E0E0808180830895BA
:1018C000F0E0E0E0808180830895982F990F990FD0
:1018D000990F80E0905408950895CF93DF931F925D
:1018E000CDB7DEB76983DC01ED91FC910280F38115
:1018F000E02D41E050E0BE016F5F7F4F19950F90E2
:10190000DF91CF910895FC01818D928D08952091F2
:10191000E404260F3327331F21323105ECF42091E4
:101920009A05FC0190E080E0243069F082E008959F
:10193000A091E4042191AC014C535B4FA40FB52F4F
:10194000B11D2C930196861798F38091E404680FDB
:101950006093E40480E0089581E0089510929A0570
:1019600081E0809399051092740561E084E10E9402
:101970007E0B61E085E10E947E0BE9EBF0E0808167
:101980008E7F808380818D7F808388E48093B80000
:1019900085E48093BC000895CF93DF9391E090930A
:1019A000C3048823B9F0C091B800D091BA008091E7
:1019B000BC008A7B8093BC0060E084E10E947E0BC7
:1019C00060E085E10E947E0B0E94AE0CD093BA00CD
:1019D000C093B800DF91CF9108958F929F92AF92FC
:1019E000BF92CF92DF92EF92FF920F931F93CF930C
:1019F000DF93413208F0D5C0D42F072F162FC82F00
:101A00000E94DD0B6B017C0180919A0581116FC0F2
:101A100082E080939A0581E0809399058FEF80930F
:101A2000980510929705D0939605912FA6E7B5E0FB
:101A3000E12FF02F8E2F891B8D1708F48BC0109289
:101A4000750580917505CC0FC82BC09375058091E5
:101A50007405813009F081C0109274050E94DD0B7D
:101A60006B017C01809175058093BB0080919C0582
:101A700090919D05A0919E05B0919F05892B8A2B81
:101A80008B2BA1F00E94DD0B00919C0510919D0510
:101A900020919E0530919F056C197D098E099F0943
:101AA000061717072807390708F442C08091BC00C1
:101AB00083FDD8CF85EC8093BC000E94DD0B6B01C9
:101AC0007C0180919A05823009F449C08091980583
:101AD0008F3F09F468C080919805803209F465C091
:101AE00080919805803309F462C084E026C080911B
:101AF0009C0590919D05A0919E05B0919F05892B15
:101B00008A2B8B2B09F480CF0E94DD0B80909C05E3
:101B100090909D05A0909E05B0909F056C197D0941
:101B20008E099F0986169706A806B90608F06CCF9D
:101B300080919B050E94CC0C85E0DF91CF911F9195
:101B40000F91FF90EF90DF90CF90BF90AF909F905C
:101B50008F90089581918D936DCF85EEACCF80915C
:101B60009C0590919D05A0919E05B0919F05892BA4
:101B70008A2B8B2B09F4A5CF0E94DD0B00919C05CD
:101B800010919D0520919E0530919F056C197D094E
:101B90008E099F09061717072807390708F091CF04
:101BA000C7CF81E0CACF80E0C8CF82E0C6CF83E054
:101BB000C4CF4091730562E575E0809172050E9483
:101BC000ED0C109251051092730510925005089576
:101BD000E091150580911405E81730F4F0E0ED551B
:101BE000FB4F808190E008958FEF9FEF08959091D3
:101BF0001505809114052FEF3FEF981748F4E92F52
:101C0000F0E0ED55FB4F208130E09F5F909315058C
:101C1000C90108958091140590911505891B990BB0
:101C20000895CF92DF92EF92FF920F931F93CF937D
:101C3000DF937C01CB018A0120915005222389F09A
:101C4000EB016B01C40ED51ECC15DD0569F0699161
:101C5000D701ED91FC910190F081E02DC70119951C
:101C6000F3CF642F0E94870CC801DF91CF911F91A1
:101C70000F91FF90EF90DF90CF900895CF93DF9377
:101C80001F92CDB7DEB76983209150052223F9F06A
:101C900020917305203258F021E030E0FC013383BD
:101CA000228390E080E00F90DF91CF9108958091A2
:101CB0005105E82FF0E0EE5AFA4F998190838F5F3B
:101CC000809351058093730581E090E0ECCF61E053
:101CD000CE0101960E94870CF7CFFC011182108281
:101CE0008BE89EE0958384839783868391878087A2
:101CF00093878287158A108E148615861686178616
:101D00008FEF868B828FDF015E96F4968D93AE17F0
:101D1000BF07E1F7089580E00895DC011A96ED9180
:101D2000FC9130E020E01994DC011496ED91FC91D7
:101D300030E020E040E060E11994DC011496ED9180
:101D4000FC9130E020E040E069E01994CF93DF930C
:101D5000EC01EA85FB8530E020E040E068E219957F
:101D6000EE81FF8130E020E040E064E1CE01199592
:101D700041E06BE4CE010E948D0EE881F98144813F
:101D800069E2CE010E948D0E40E06BE4CE010E941C
:101D90008D0EE881F981448169E2CE010E948D0EA9
:101DA00041E06BE4CE010E948D0EE881F98145810E
:101DB00069E2CE01DF91CF910C948D0EDC01169675
:101DC000ED91FC9130E020E040E069E11994DC0104
:101DD0001696ED91FC9130E020E040E068E1199426
:101DE0009A01DC011696ED91FC91462F67E119945A
:101DF000EF92FF920F931F93CF93DF931F92CDB774
:101E0000DEB77C018B01D8016C91673129F150F468
:101E10006531A0F40F90DF91CF911F910F91FF904A
:101E2000EF9008956A3118F16E3FA1F7F8014181F2
:101E3000498369E2C7010E948D0E0BC0F801418100
:101E40004983D7011696ED91FC9130E020E0C7015F
:101E500019950E5F1F4FD7CFF80181818983AE019D
:101E60004F5F5F4F61E0C7010E94F00EF2CF0F5F3E
:101E70001F4FD7011696ED91FC9130E020E040E035
:101E8000C7011995C0CF462FDC011696ED91FC9144
:101E900030E020E066E11994462FDC011696ED91C2
:101EA000FC9130E020E065E11994EF92FF920F93EE
:101EB0001F93CF93DF93EC01042F7901693039F43C
:101EC0008FE393E09983888380E28C8B09C06A302A
:101ED00079F40E94A60E62EF72E0CE010E94F80E25
:101EE00081E0DF91CF911F910F91FF90EF900895C6
:101EF0006D30D1F120F46B3079F180E0F2CF6E30AB
:101F000009F444C06F30C9F70E94E70EF70113814E
:101F1000110F110F110F6C89160F612F62956F70E1
:101F20006061CE010E944C0F612F6F70CE010E9444
:101F30004C0FF7016481606BCE010E944C0FF701DA
:101F4000408151816281660F660F660FCE010E944B
:101F5000F00E0150A1F724C06AE373E0442309F4B2
:101F6000BCCF65E373E0B9CF411108C06EE273E006
:101F70000E94F80EE881F9818289A7CF67E273E0B9
:101F80000E94F80EE881F98183899FCF0E94E70EB5
:101F900061E8CE010E944C0F602FCE010E94430FDA
:101FA000CE010E94DE0E9CCFEF92FF920F931F9303
:101FB000CF93DF93EC01042F7901693069F48AED46
:101FC00092E0998388831C8A81E0DF91CF911F91F1
:101FD0000F91FF90EF9008956D3009F443C030F4F5
:101FE0006A3089F16B30B9F180E0EFCF6E3009F4DF
:101FF0004CC06F30C9F70E94E70EF7011381110F33
:10200000110F110F6C89160F612F62956F7060614F
:10201000CE010E944C0F612F6F70CE010E944C0FB9
:10202000F7016481606BCE010E944C0FF701408183
:1020300051816281660F660F660FCE010E94F00E1D
:102040000150A1F72CC00E94A60E65EA72E0CE01F5
:102050000E94F80EB9CF60EA72E04423C1F36BE945
:1020600072E0F5CF411109C064E972E00E94F80EF8
:10207000E881F98182898C8BA7CF6DE872E00E949C
:10208000F80EE881F9818389F6CF0E94E70E61E8B6
:10209000CE010E944C0F602FCE010E94430FCE0153
:1020A0000E94DE0E91CFEF92FF920F931F93CF937A
:1020B000DF93EC01042F79016E3009F454C06F30C6
:1020C00091F06B3009F445C06A3009F46AC06D3094
:1020D00009F454C080E06930A9F589E392E099835E
:1020E000888384E054C00E94E70EF7011381110F2A
:1020F000110F110F6C89160F60E4CE010E944C0F76
:10210000612F62956F706061CE010E944C0F612F4C
:102110006F70CE010E94430FF7016481606BCE01A6
:102120000E94430FF701408151816281660F660F63
:10213000660FCE010E94F00E0150A1F7CE010E9461
:10214000DE0E81E0DF91CF911F910F91FF90EF9014
:10215000089569E272E0442311F064E272E0CE0176
:102160000E94F80EEECF0E94E70E61E8CE010E94B9
:102170004C0F602FCE010E94430FE0CF411109C0E8
:102180006EE272E00E94F80EE881F98182898C8B00
:10219000D8CF62E872E00E94F80EE881F981838965
:1021A000F6CF0E94A60E61E572E0D9CFDC01189649
:1021B000ED91FC9130E020E040E069E11994DC0110
:1021C0001896ED91FC9130E020E040E068E1199430
:1021D000CF93DF931F92CDB7DEB76983BE016F5FE8
:1021E0007F4F0E940C0B0F90DF91CF910895EF92DB
:1021F000FF921F93CF93DF93EC01162F7A010E9479
:10220000DF1060E4CE010E94E810E885F9859701AF
:10221000412F67E1CE011995CE01DF91CF911F913A
:10222000FF90EF900C94D610EF92FF921F93CF93F4
:10223000DF93EC01142F7901673130F4653178F4C4
:10224000643159F180E005C06731F9F06A31D0F7A7
:1022500081E0DF91CF911F91FF90EF9008950E9450
:10226000DF1060E0CE010E94E810612FCE010E94D5
:10227000E810CE010E94D610EBCF68E1CE010E949B
:10228000F710185188E1E80EF11CA7011931A8F7E1
:10229000612FCE010E94F710DBCF8E898F3F11F4A2
:1022A00088E78E8BE885F9859701412F64E1CE019F
:1022B000DF91CF911F91FF90EF901994EF92FF92D1
:1022C0001F93CF93DF93EC01142F7901663181F1D5
:1022D00038F4643109F44BC0653179F080E022C0F4
:1022E0006831C9F150F16931C9F78091A20488239E
:1022F00091F1CE010E94D6102EC08091A2048823B5
:1023000019F0CE010E94D610CE010E94DF1060E0CD
:10231000CE010E94E810612FCE010E94E81081E0FA
:102320008093A204DF91CF911F91FF90EF900895C9
:10233000642F0E94E81081E0F5CF8091A2048823E9
:1023400019F0CE010E94D610A701193138F4612F7F
:10235000CE010E94F7101092A204EDCF68E1CE01E9
:102360000E94F710185188E1E80EF11CEDCF8E891C
:102370008F3F11F488E78E8BE885F9859701412F0F
:1023800064E1CE01DF91CF911F91FF90EF901994FE
:102390000F93DC01FC01EE5BFF4F9081941B492FF2
:1023A00031979081961B692F01110EC04150621B1D
:1023B000DE968C91DE97481BD496ED91FC91D597D3
:1023C000CD0119950F910895013091F76150421B8D
:1023D000EFCF0F93DC01DE963C91DE97431BD49642
:1023E000ED91FC9119950F910895CF93DF93FC0126
:1023F000A081B18182AD982F990F990F990F95AF58
:1024000050969C915097903208F09FE1990F990F48
:10241000990F94AF23AD922F990F990F990F96AF03
:1024200051963C915197682F620F7727771F361787
:10243000170614F4832F821B97AFEF01C05CDF4FA8
:10244000880F880F880F890F8883219680EF8883F3
:1024500054968D919C915597813F910508F48883FE
:10246000EE5BFF4F56968C918083DF91CF9108955C
:102470000C94F5110C94F5110F93FC01EB5BFF4FDD
:10248000308131965081451730F4301738F00417F9
:1024900028F080E013C03017D0F3FBCFFC01ED5BD8
:1024A000FF4F30818C5B9F4FFC018081681740F4A7
:1024B00081E0321718F081E0261758F70F91089540
:1024C0003217C8F3E6CFDF92EF92FF920F931F937C
:1024D000CF93DF93EC01FC01E65BFF4F1081329755
:1024E000E0803196F0803297D080012F2E2D4F2D35
:1024F0006D2D0E943C12FE01ED58FF4F811109C065
:102500001082DF91CF911F910F91FF90EF90DF909C
:10251000089581E08083FE01ED5BFF4F80818D1582
:1025200008F4D082FE01EC5BFF4F8081E81608F4CE
:10253000E082FE01EB5BFF4F80818F1508F4F08293
:10254000CA5BDF4F88811817E0F61883DACFFC01E9
:10255000ED5BFF4F10823196DC01AF5BBF4F2C91DA
:1025600020833196108211962C9112973C9123175B
:1025700018F0422F431B4083FC01EA5BFF4FDC0154
:10258000DF963C91231B20830C946312FC01ED5BCE
:10259000FF4F10823196DC01AF5BBF4F2C9120833F
:1025A0003196DC01DF962C91DF9720833196A05C79
:1025B000BF4F2C9120830C94631287589F4FFC01CE
:1025C000608308950F93DC01802FFD01ED58FF4FCC
:1025D00090819923E9F12223D9F1223020F00230B1
:1025E00079F56F5F621B082F0170FD0180FD32C01D
:1025F000EB5BFF4F8081481758F131968081481777
:1026000038F53297908131978081260F2617F0F4A4
:102610006917D8F42FEF290F8217D0F4681708F440
:10262000682F291708F4922F961BD696ED91FC91EE
:10263000D7970480F581E02D292FCD01199508C089
:10264000033089F64F5F421BCECF682F691720F306
:102650000F910895ED5BFF4F80816817C8F33196A5
:1026600080816817A8F73296908131978081240F76
:10267000241778F4491760F42FEF290F821740F7D9
:10268000481708F4482F291708F4922F941BCDCF30
:10269000482F4917E8F6F2CFEF92FF920F93CF93AE
:1026A0007C0100E220E840E060E00E943C128823C8
:1026B00059F0C0E000E020E84C2F60E0C7010E9424
:1026C000E212CF5FC032B1F7CF910F91FF90EF9040
:1026D0000895213039F020F0223031F0840F089530
:1026E000860F0895841B0895861B0895213039F0C4
:1026F00020F0223031F0861B0895840F0895860F54
:102700000895841B08955F926F927F928F929F929B
:10271000AF92BF92CF92DF92EF92FF920F931F93EF
:10272000CF93DF935C01162F642EEC01C15BDF4F6A
:10273000DC80ED804C0189E7880E911CFE80FD183D
:10274000C12EF11608F4CF2C5B800C85202F4E2D66
:102750006D2D8A810E946913782E202F4E2D6D2DAC
:10276000852D0E947613482F662071F08A85F4012A
:1027700080832C2D672DC5010E94E2121F1548F0A1
:102780001F19E394D12CDACF89858111F7CF8B857E
:10279000EECF1D0D1C83ED82DF91CF911F910F9124
:1027A000FF90EF90DF90CF90BF90AF909F908F9071
:1027B0007F906F905F900895DC0118964C91189768
:1027C000ED91FC911197249130E0042E02C03595D3
:1027D00027950A94E2F7842F860F883068F03196A7
:1027E0001196FC93EE93E49198E0941B01C0EE0FD8
:1027F0009A95EAF72E2B885018968C938FEF9FEFBF
:1028000001C0880F6A95EAF7809582230895FC013C
:10281000E60FF11D849190E0982F88273196E4917E
:102820008E0F911D0895EF92FF920F931F93CF93F8
:10283000DF937C012BE4E20EF11CD7012D913C913A
:102840002C55334009F481C08C01ECE5F3E0D7014D
:10285000ED93FC93E491EC01C45ADF4FE883EDE57E
:10286000F3E0E491E983EEE5F3E0E491EA83EFE558
:10287000F3E0E491EB83E0E6F3E0E491EC83E1E65E
:10288000F3E0E491ED83E2E6F3E0E491EE83E3E646
:10289000F3E0E491EF83E4E6F3E0E491E887E5E632
:1028A000F3E0E491E987E6E6F3E0E491EA87E7E61E
:1028B000F3E0E491EB87E8E6F3E0E491EC87E9E606
:1028C000F3E0E491ED87EAE6F3E0E491EE87EBE6EE
:1028D000F3E0E491EF87ECE6F3E0E491E88B61E16B
:1028E0008CE593E00E9407149A8B898B63E18CE559
:1028F00093E00E9407149C8B8B8B65E18CE593E041
:102900000E9407149E8B8D8BF70180819181892B0A
:10291000E1F07E9680816996888331964081D80166
:10292000AA58BF4F4C933A969081992371F09130F9
:1029300099F43997908189170CF49883F801E45938
:10294000FF4F808184170CF48C93DF91CF911F91FE
:102950000F91FF90EF900895F801EA59FF4F3081F1
:1029600032962081082E000C990B622F022E000C4B
:10297000770B630F711D37FD7A958617970714F44F
:10298000320F388324170CF72C93DFCF6F927F928E
:102990008F929F92AF92BF92CF92DF92EF92FF926F
:1029A0000F931F93CF93DF93EC01062F142F790120
:1029B000FC01E55AFF4F8081813009F445C0D0F118
:1029C000823009F44BC0833009F452C0FE01EF5A43
:1029D000FF4F00833196108337978081918147960E
:1029E0002FEFE216F10411F008F0E6C0E1E6EE1672
:1029F000F10408F447C0FE01E159FF4F2081318105
:102A0000820F931F9C012F5F3F4FF90144914111A9
:102A100042C0712C872DDF91CF911F910F91FF90B4
:102A2000EF90DF90CF90BF90AF909F908F907F906E
:102A30006F900895FE01E35BFF4F0190F081E02D60
:102A4000CE011995180FC2CFFE01E35BFF4F019035
:102A5000F081E02DCE011995081BB8CFFE01E35B94
:102A6000FF4F0190F081E02DCE011995181BAECFDC
:102A7000FE01E35BFF4F0190F081E02DCE0119953F
:102A8000080FA4CFF1E4EF16F10408F4BBCFFE0168
:102A9000E359FF4FB3CFFC0144914E151F0409F0D9
:102AA00086C00296009709F4B4CF7E01FFE4EF0ED2
:102AB000F11CF70191838083108671966081C701B4
:102AC0000E94DC13F701868372966081C7010E9421
:102AD000DC13A82EF70187836E01F9E7CF0ED11C16
:102AE000F6019081F701928781E0911180E0F70172
:102AF0008387FE01EE59FF4FB0806B2DC7010E9406
:102B0000DC13882EFE01ED59FF4F1081612FC701A4
:102B10000E94DC13982EFE01EC59FF4F0081602FBC
:102B2000C7010E94DC13015041E050E09A0101C04E
:102B3000220F0A95EAF7782E721AF701068110160D
:102B40000CF068CFBA94CA0101C0880FBA94EAF7B2
:102B5000881AB4849A0C115001C0440F1A95EAF7F0
:102B6000F42FF9199F2E2B2D4F2F682DF7018281FD
:102B70000E946913182FF70182832B2D492D682D90
:102B800083810E947613F7018383F1E0BF1609F475
:102B90007CC0BF1608F43FC022E0B21609F47BC027
:102BA00093E0B91609F482C0082F212F38C0F9012B
:102BB0002491820F911D26CFFE01EF58FF4F008117
:102BC0001181080F191F680160E0C6010E940714F7
:102BD000080F191F62E0C6010E940714F4E0CF0E2F
:102BE000D11C8E159F0580F3F801849190E0982FF9
:102BF00088273196E4918E2B009709F40ACFE816C6
:102C0000F90619F4C80103964DCFF8013296E49104
:102C10000E0F111DE9CF202F210F082F0A0D482F6D
:102C2000612FCE010E943C12882309F4F3CEF701F4
:102C3000148215828E01025A1F4F4E01FFE58F0E3E
:102C4000911CF8016081C7010E94DC13682EF40119
:102C50006081C7010E94DC13B82E40E0662DCE01D2
:102C60000E94831341E06B2DCE010E94831361E02B
:102C7000C7010E94DC138111F0CFF70185818A150D
:102C800004F38285F6018083C5CEBA1821E0210FB6
:102C9000080F1B0DC4CF91E0392F301B21E0210F0D
:102CA0009A1901E0080F890F130FB9CF212F2A0DB0
:102CB000982F901B01E0080F81E0890FB0CFAF92F1
:102CC000BF92DF92EF92FF920F931F93CF93DF9308
:102CD000EC01162F042F188E7901D12C5C012BE505
:102CE000A20EB11CF70161917F01EA81FB81CE0147
:102CF00019958F3F9807E9F08E3F2FEF920791F3D8
:102D00009C01402F612FCE010E94C614F5019081D5
:102D1000913049F030F0923041F0933041F0D80ECC
:102D2000E1CF180FFCCF080FFACF181BF8CF081B04
:102D3000F6CF8D2DDF91CF911F910F91FF90EF90E6
:102D4000DF90BF90AF900895CF93DF93EC016BAF0E
:102D5000EEA9FFA90190F081E02D1995EEA9FFA938
:102D60000280F381E02DCE01DF91CF911994AF92D3
:102D7000BF92CF92DF92EF92FF920F931F93CF9368
:102D8000DF9300D01F921F92CDB7DEB78C01DC011C
:102D9000DA96AC90DA97DB96EC90DB97ED91FC91AC
:102DA000B188FE2CD12CC12CD801ED91FC9111974A
:102DB0008089D8962D913C911C82FD828B83B8E04E
:102DC0008B9FC00111248C9DA0018D9D500D9C9D59
:102DD000500D1124240F351F3A832983D8011496EE
:102DE000ED91FC919E012F5F3F4F41E06FE0C801E4
:102DF0001995F3948F2D8E198A1528F4BFEFCB1AED
:102E0000DB0AFB1488F20F900F900F900F900F9039
:102E1000DF91CF911F910F91FF90EF90DF90CF90B6
:102E2000BF90AF900895CF93DF93EC010E94B71647
:102E3000CE01DF91CF910C94940ECF93DF93EC01F0
:102E4000962F683109F445C0B901993130F49431B5
:102E500099F0973159F080E006C0993109F45BC0D0
:102E60009032C9F781E0DF91CF91089550E086E17B
:102E700096E00E94110EF6CF8C859D85AE85BF85AC
:102E8000892B8A2B8B2B71F4E881F981A585B0E021
:102E900020EA36E841E050E00E943F316C877D87B0
:102EA0008E879F8710921505109214051092510578
:102EB000109273050E94AE0C84E19BE09093110583
:102EC0008093100585E19BE0909313058093120594
:102ED000C9CF2C853D854E855F8560E074E284EF27
:102EE00090E00E944A31205131094109510956951B
:102EF0004795379527952093B8008E8990E0959552
:102F0000879591E09093500580937205109251053A
:102F100010927305A7CF0E94D90DA4CF0F931F93D2
:102F2000CF93DF93EC01862F642F8C3208F03AC0E8
:102F30008A3208F060C0883209F44BC0893209F443
:102F400060C0803408F475C0982F9F73FE01E90FAC
:102F5000F11D868D8F3F09F44EC0903108F436C0C4
:102F6000282F30E0F901EA5EFC4F8491F901E0532B
:102F7000FD4F0491F901E657FD4F1491112379F0AB
:102F800081110E94170BE12FF0E0EE0FFF1FE45CB0
:102F9000FD4FA591B491EC910E2381E009F480E0FE
:102FA000898F29C08D3299F108F4CBCF94EB980F1B
:102FB000923008F0C6CF8F73C80FD11D8E8D41118E
:102FC00034C061E00E94AC0B60E08E8D0E947E0BED
:102FD00012C08E01025E1F4FD0E0F80181918F0177
:102FE0008F3F31F061E0D03108F062E00E94AC0B1D
:102FF000DF5FD63191F781E0DF91CF911F910F9183
:10300000089570E090E080E00E94020CF4CF85E02B
:1030100090E0433010F082E090E0880F991F880F15
:10302000991F05970197F1F7E6CF62E00E94AC0B7C
:10303000E2CF80E0E1CF08958EBD00000DB407FE21
:10304000FDCF8EB50895CF92DF92EF92FF920F934E
:103050001F93CF93DF9300D000D01F921F92CDB764
:10306000DEB78C017B016A010E94600C0F3F1105E5
:1030700009F028F419820A8384E08B830CC017FDC1
:103080001AC019820A8333E0169507953A95E1F73D
:10309000007E0C600B8387010C0D1D1DE6E0CE1633
:1030A000D10490F5F701DE0114960E171F0799F071
:1030B00081918D93FACFC80126E0969587952A9540
:1030C000E1F7807E19830A830115104C10F48461A6
:1030D000D4CF8C61D2CFB6016D5F7F4FCE01019608
:1030E0000E94410C0E945B0CC60128960FB6F89412
:1030F000DEBF0FBECDBFDF91CF911F910F91FF902B
:10310000EF90DF90CF90089563E070E0CE010196DC
:103110000E94410CF70181917F010E941C18E0166A
:10312000F106C1F7DFCFFB01BA0190E0982F8827A5
:10313000A9018E0F9F1F0C942318CF93DF931F922A
:103140001F92CDB7DEB779836A8322E030E0AE010B
:103150004F5F5F4F64E070E00E9493180F900F90F4
:10316000DF91CF910895DF92EF92FF920F931F931B
:10317000CF93DF931F921F92CDB7DEB7FB01DC0127
:1031800057961C921E9256972281211109C02381C5
:10319000211106C02481211103C02581222369F158
:1031A0004115510551F17A018F01FC01D08C80E568
:1031B00091E00E94090BA8014E5F5F4F24E030E0D0
:1031C0006CE070E08D2D0E949318F982EA8222E073
:1031D00030E0AE014F5F5F4F60E170E08D2D0E94E7
:1031E000931881E090E00F900F90DF91CF911F91A5
:1031F0000F91FF90EF90DF90089580E0F3CFCF9391
:10320000DF931F92CDB7DEB79B01498390E0982FE3
:10321000882741E050E0BE016F5F7F4F820F931F10
:103220000E9423180F90DF91CF910895CF93DF93E1
:10323000DB01EA01FC01E256FB4F40815CE0589F54
:103240009001599F300D112447FF1CC011961C920C
:103250001E9280818F5F80838081A901480F511D5C
:1032600087FD5A9557FF03C080818C30ACF08D915B
:103270009C911197049680349C4938F18D919C91D2
:10328000049625C08081A901480F511D87FD5A95DC
:1032900057FFDFCF8081DDCF8D919C914081240F3E
:1032A000311D47FD3A95D901AA0FBB1FA20FB31FCD
:1032B000A25FBB4F11962D913C91820F931F998372
:1032C00088838081DF91CF91089580E49CE9998380
:1032D00088838FEF8083F6CF91E09093500590E73D
:1032E00090937205109251051092730561E070E0A1
:1032F00001C0660F8A95EAF786E196E00E943E0ECD
:103300000C94D90DDC0153962C915397222351F044
:103310005496ED91FC915597309721F053961C925D
:103320000D9619940895CF93DF93DC0112968D9139
:103330009C911397FB01E81BF90BED01CE0FDF1FEA
:103340008885082E000C990B4817190629F0488724
:1033500081E052968C9352973196E430F10568F4EF
:10336000EA0FFB1F8085082E000C990B58171906D1
:1033700021F0508781E052968C93DF91CF91089590
:10338000DC011F962C911F97222351F05096ED914E
:10339000FC915197309721F01F961C920B9619942F
:1033A0000895CF93DF93DC0112968D919C91139732
:1033B000FB01E81BF90BED01CE0FDF1F8885082EFE
:1033C000000C990B4817190629F0488781E01E96D2
:1033D0008C931E973196E230F10568F4EA0FFB1FDB
:1033E0008085082E000C990B5817190621F050877C
:1033F00081E01E968C93DF91CF910895DC015B965E
:103400002C915B97222351F05C96ED91FC915D9796
:10341000309721F05B961C92419619940895CF93B2
:10342000DF93DC0112968D919C911397FB01E81BB1
:10343000F90BED01CE0FDF1F8885082E000C990BCC
:103440004817190629F0488781E05A968C935A97B5
:103450003196E830F10568F4EA0FFB1F8085082EED
:10346000000C990B5817190621F0508781E05A96E5
:103470008C93DF91CF910895CF93DF93FC01C081AE
:10348000D18187E00E946C191092DC0A60E084E828
:103490009AE00E94DD1284E89AE00E944C1361E0F9
:1034A00084E89AE00E94DD128DE59AE09093870A05
:1034B0008093860A9E0140E265E084E89AE00E94DB
:1034C0005F1684E89AE0DF91CF910C941317CF93A5
:1034D000DF93FC01C081D18186E00E946C191092BB
:1034E0005F0B60E087E09BE00E94DD1287E09BE0DD
:1034F0000E944C1361E087E09BE00E94DD128DE5A5
:103500009AE090930A0B8093090B9E0140E265E0DC
:1035100087E09BE00E945F1687E09BE0DF91CF9100
:103520000C941317CF93DF93FC01C081D18185E008
:103530000E946C191092E20B60E08AE89BE00E9406
:10354000DD128AE89BE00E944C1361E08AE89BE070
:103550000E94DD128DE59AE090938D0B80938C0B89
:103560009E0140E265E08AE89BE00E945F168AE8DF
:103570009BE0DF91CF910C941317CF93DF93FC0165
:10358000C081D18184E00E946C191092650C60E0CA
:103590008DE09CE00E94DD128DE09CE00E944C13C7
:1035A00061E08DE09CE00E94DD128DE59AE0909351
:1035B000100C80930F0C9E0140E265E08DE09CE0D2
:1035C0000E945F168DE09CE0DF91CF910C94131761
:1035D000CF93DF93FC01C081D18183E00E946C19FD
:1035E0001092E80C60E080E99CE00E94DD1280E926
:1035F0009CE00E944C1361E080E99CE00E94DD1297
:103600008DE59AE09093930C8093920C9E0140E29A
:1036100065E080E99CE00E945F1680E99CE0DF9114
:10362000CF910C941317FC01848595850895FC01B6
:103630008489958908952DEA33E0FC013183208344
:10364000FB014089518962897389FC01428353835C
:10365000648375830895DC01ED91FC91048CF58DF4
:10366000E02D1994CF92DF92EF92FF920F931F9368
:10367000CF93DF936C01EB017B01E40EF51E10E0AC
:1036800000E0CE15DF0561F06991D601ED91FC9166
:103690000190F081E02DC6011995080F191FF1CF97
:1036A000C801DF91CF911F910F91FF90EF90DF90B4
:1036B000CF900895CF92DF92EF92FF920F931F93D6
:1036C000CF93DF93EC016C0124E0C20ED11CFC010E
:1036D000E158FF4F0190F081E02DC60119958E3F12
:1036E000EFEF9E07C8F48E010E571F4F7E01F1E8E1
:1036F000EF0EF11C9C01F8014081F7016081C601C9
:103700000E94C614C15ADF4F98819130A9F078F019
:103710009230A1F09330B9F081E090E0DF91CF9149
:103720001F910F91FF90EF90DF90CF900895F701D8
:103730009081890F8083F0CFF801FACFF701908153
:10374000981B892FF7CFF801FACF089590E080E019
:103750000895CF92DF92EF92FF920F931F93CF9332
:10376000DF9300D01F92CDB7DEB78C016B017A01D9
:103770000E94600C0F3F110509F030F519820A8391
:103780001B8263E070E0CE0101960E94410CA7010C
:1037900070E060E0C6010E949233E114F10421F070
:1037A000B701C6010E94410C0E945B0CC7010F903B
:1037B0000F900F900F90DF91CF911F910F91FF907D
:1037C000EF90DF90CF90089517FD0BC019820A8308
:1037D00033E0169507953A95E1F7007E08600B8374
:1037E000D0CFC80126E0969587952A95E1F7807E8F
:1037F00019830A830115104C18F480618B83C1CFA3
:103800008861FCCFCF93DF931F92CDB7DEB79B01CA
:1038100090E0982F882741E050E0BE016F5F7F4F16
:10382000820F931F0E94A91B89810F90DF91CF9176
:103830000895CF93C82F462F61E070E00E94FF18D3
:1038400061E070E08C2F0E94021C8111F9CFCF91B2
:103850000895CF93C82F80E591E00E94090B60E1A5
:1038600070E08C2FCF910C94191CCF93DF93EC0157
:10387000888D883020F40E94291C88E0888FDF9191
:10388000CF910895CF93FC01C08D80E591E00E9417
:10389000090B60E270E08C2F0E94191C62E070E05E
:1038A0008C2F0E94021C84FD16C062E070E08C2FF9
:1038B0000E94021C83FF0AC048E162E070E08C2F86
:1038C0000E94FF1880E090E0CF91089580E591E09C
:1038D0000E94090BE3CF40E162E070E08C2F0E9470
:1038E000FF1881E0F0CF1F93CF93DF931F92CDB7E6
:1038F000DEB7FC01108D183020F5818D928D892B5B
:1039000001F180E591E00E94090B812F0E94650C76
:1039100027E0129FF0011124E85EFA4F22813381E3
:10392000377041E050E0BE016F5F7F4F820F931F01
:103930000E94A91B898190E00F90DF91CF911F9188
:1039400008958FEF9FEFF8CFFB01BA0190E0982F19
:103950008827A9018E0F9F1F0C94A91B88E008954A
:10396000EF92FF920F931F93CF93DF9300D000D07D
:10397000CDB7DEB78C017A01FC01808D883010F460
:103980000E94291CB701CE0101960E94AE1CF801CD
:10399000808F883090F4F586E486128E118E81E057
:1039A00026960FB6F894DEBF0FBECDBFDF91CF9144
:1039B0001F910F91FF90EF90089580E0F1CFFF925B
:1039C0000F931F93CF93DF931F921F92CDB7DEB754
:1039D000F82E22E030E0AE014F5F5F4F66E270E00C
:1039E0000E94A41C09811A8110270127102722E0B8
:1039F00030E0AE014F5F5F4F66E270E08F2D0E94B6
:103A0000A41C89819A819827892798270817190764
:103A100049F4C8010F900F90DF91CF911F910F9142
:103A2000FF9008958C01E3CF3F924F925F926F9287
:103A30007F928F929F92AF92BF92CF92DF92EF923E
:103A4000FF920F931F93CF93DF931F921F92CDB7D7
:103A5000DEB7382E6B017A01A82EB12C27E0829FA9
:103A6000C0011124FC01E85EFA4F4F010081118171
:103A700080E591E00E94090B0E151F0554F4832D7B
:103A80000E94DF1CF40126818C01021B11091183A5
:103A900000830115110539F563E070E0832D0E9464
:103AA000021C843159F0882349F001E010E08C3188
:103AB00011F410E000E0119501951109C8010F9073
:103AC0000F90DF91CF911F910F91FF90EF90DF90BA
:103AD000CF90BF90AF909F908F907F906F905F90AE
:103AE0004F903F900895E016F1060CF4870187E0AF
:103AF0008A9DF0018B9DF00D1124E85EFA4F428003
:103B00005380C114D10419F13201F7E07F22832DD3
:103B10000E94650C4C01C301880D991D9801260D6A
:103B2000371D2130384008F448C060E078E07B0160
:103B3000E618F708A701B6010E94A91BA8014E19B3
:103B40005F09B6016E0D7F1DC4010E94A91B400EC6
:103B5000511E87E08A9DF0018B9DF00D1124E85ED7
:103B6000FA4F5382428220813181201B310B3183F5
:103B700020838681800F912F911D8A3F910510F43B
:103B8000232BF1F487E08A9DF0018B9DF00D112429
:103B9000E85EFA4F168259824A8222E030E0AE0196
:103BA0004F5F5F4F68E270E0832D0E94931860E4DE
:103BB00070E0832D0E94191C81CFA801B601C5CFEA
:103BC00086837CCFCF93DF93FC01218D328D21152D
:103BD000310529F48FEF9FEFDF91CF910895EC012C
:103BE000808D4217530708F0A9010E94141D181672
:103BF000190684F7298D3A8D281B390B3A8F298FA6
:103C0000EBCF0F931F93CF93DF931F92CDB7DEB708
:103C1000FC01218D328D232B41F48FEF9FEF0F900C
:103C2000DF91CF911F910F9108958C0141E050E0F9
:103C3000BE016F5F7F4FFC01808D0E94141D18161E
:103C400019065CF7F801818D928D0197928F818F13
:103C5000898190E0E4CF3F924F925F926F927F9282
:103C60008F929F92AF92BF92CF92DF92EF92FF928C
:103C70000F931F93CF93DF931F921F92CDB7DEB7A1
:103C80005C014B01342E452EFC0166887788508CF0
:103C900080E591E00E94090B22E030E0AE014F5F29
:103CA0005F4F60E270E0852D0E94A41CE980FA80DD
:103CB000FE24EF24FE2422E030E0AE014F5F5F4F90
:103CC00060E270E0852D0E94A41C89819A8198276A
:103CD00089279827E816F90609F070C0C52CD12C61
:103CE00067E0569EF0011124E85EFA4FF582E48207
:103CF000032D142DE016F10608F4870122E030E0D0
:103D0000AE014F5F5F4F64E270E0852D0E94A41CFE
:103D100089819A81982789279827680E791E9301AF
:103D2000377080E1C80ED11CDC2CCC24DD0CDD0CFE
:103D3000DD0CC9018C0D9D1DA901400F511F4130A3
:103D40005840F0F160E078E07B01E21AF30AA70145
:103D5000B4010E942318A8014E195F09B4016E0D29
:103D60007F1DC6010E942318600E711E79826A822F
:103D700022E030E0AE014F5F5F4F64E270E0852DDE
:103D80000E949318F50186899789800F911F978B60
:103D9000868BC8010F900F90DF91CF911F910F91EB
:103DA000FF90EF90DF90CF90BF90AF909F908F905B
:103DB0007F906F905F904F903F9008957C017BCFF4
:103DC000A801B401CFCFCF93DF93EC01888D883069
:103DD00010F40E94291C88E0888F80E0DF91CF9149
:103DE0000895FC01A081B18150962C9182AD38E0FC
:103DF000839FC0011124289FA001299F500D1124E9
:103E000070E060E080AD91AD0C9492331F93CF933E
:103E1000DF93EC010E94B7161BAD8AAD180FE88145
:103E2000F9818189181740F0CE010E94940E80E03C
:103E3000DF91CF911F910895FE01E658FF4F8081D9
:103E4000882319F0CE010E94F11E612FCE010E943D
:103E5000A41681E0EDCFCF93DF93EC01FC01E6588F
:103E6000FF4F8081882319F0CE010E94F11E60E08F
:103E7000CE01DF91CF910C94A4160F931F93CF9393
:103E8000DF938C01EC012496DC011896ED91FC91F6
:103E900030E020E040E06AE0CE011995CE010E94BA
:103EA0002B1FCE010E94061F8111FBCF60E0CE01C7
:103EB0000E94A416D8011896ED91FC9130E020E004
:103EC00040E06BE0CE01199581E0DF91CF911F9129
:103ED0000F9108958F929F92AF92BF92EF92FF92AF
:103EE0000F931F93CF93DF93CDB7DEB7A1970FB694
:103EF000F894DEBF0FBECDBF7C01FA01CB0119A241
:103F0000223008F42AE08E010F5D1F4F822E912C83
:103F1000B12CA12CBF01A50194010E944A31F901E5
:103F2000CA016A3074F5605DD8016E938D01232B50
:103F3000242B252B79F790E080E0109789F0FD0184
:103F400001900020E9F73197AF014A1B5B0BD701C5
:103F5000ED91FC910280F381E02DB801C701199524
:103F6000A1960FB6F894DEBF0FBECDBFDF91CF9103
:103F70001F910F91FF90EF90BF90AF909F908F9007
:103F80000895695CD1CF8F929F92AF92BF92CF92EA
:103F9000DF92EF92FF920F931F93CF93DF937C01F9
:103FA000EB016C0182E0C80ED11C4701E5E08E0EEA
:103FB000911C10E000E0F60141916F0150E070E0CB
:103FC00060E02AE0CE010E946A1F5C01E881F9816D
:103FD0000190F081E02D6EE2CE0119958A0D9B1DB6
:103FE000080F191FC814D90431F7F701458150E0B3
:103FF00070E060E02AE0CE010E946A1F800F911FEE
:10400000DF91CF911F910F91FF90EF90DF90CF90B4
:10401000BF90AF909F908F9008956115710551F0FA
:10402000FB0101900020E9F73197AF01461B570BC8
:104030000C94321B90E080E00895FC0124813581CE
:10404000FB014481558124173507E1F4FC0180818F
:104050009181FB01608171810097D1F0611571053B
:10406000A1F4232BC1F0FC01808190E008C0232B38
:1040700091F0FB01808190E091958195910921E07B
:10408000892B09F020E0822F08950E949933F7CF01
:104090006115710561F721E0F6CF0F931F93CF9360
:1040A000DF938C01EB01FC01808191810097E1F0AD
:1040B0006881798161157105A9F0428153812C8154
:1040C0003D814217530770F00E94A2338C819D817D
:1040D000F801958384831D821C82DF91CF911F910B
:1040E0000F9108950E941F3288819981F801918370
:1040F00080838A819B81938382838C819D81958338
:104100008483198218821B821A82E5CFCF93DF93B2
:10411000EC0188819981009711F00E941F32198269
:1041200018821D821C821B821A82DF91CF91089512
:10413000FC0180819181009711F00C941F32089549
:104140000F931F93CF93DF93EC01888199810097A0
:1041500059F02A813B812617370730F081E0DF9143
:10416000CF911F910F9108958B016F5F7F4F0E9438
:10417000A832009759F0998388831B830A832C8186
:104180003D81232B59F7FC011082E8CF80E0E7CF77
:10419000EF92FF920F931F93CF93DF93EC01FB01FC
:1041A000E080F180E114F10411F104811581011521
:1041B0001105A9F08C819D81080F191FB801CE014E
:1041C0000E94A020882399F0288139818C819D81CB
:1041D000B701820F931F0E94A2331D830C83CE016F
:1041E000DF91CF911F910F91FF90EF900895CE0135
:1041F0000E948620F4CFEF92FF920F931F93CF93EC
:10420000DF93EC018617970781F0FB010081118194
:104210000115110539F0E480F580B7010E94A02056
:1042200081110BC0CE010E948620CE01DF91CF917B
:104230001F910F91FF90EF900895FD82EC82B801DD
:10424000888199810E94A233F0CFFC0111821082F3
:1042500013821282158214820C94FB208F929F92FB
:10426000AF92BF92CF92DF92EF92FF920F931F9384
:10427000CF93DF93CDB7DEB72C970FB6F894DEBFA0
:104280000FBECDBF6C017B018A0182E00E946C19D8
:10429000B601CE0101960E942521B701CE010196FB
:1042A0000E94C820B8010E94C820BC01CE01079618
:1042B0000E942521CE0101960E949820F601C0801F
:1042C000D180F701A080B180F801808091800FE05B
:1042D0001DE010926B0D60E083E19DE00E94DD1215
:1042E00083E19DE00E944C1361E083E19DE00E9428
:1042F000DD128DE5E82E8AE0F82EF801F782E682DD
:1043000096014EE160E083E19DE00E945F16F801B6
:10431000F782E68295014EE163E283E19DE00E942F
:104320005F16F801F782E68294014EE16DE283E1C7
:104330009DE00E945F1683E19DE00E941317CE016D
:1043400007960E9498202C960FB6F894DEBF0FBEF9
:10435000CDBFDF91CF911F910F91FF90EF90DF9034
:10436000CF90BF90AF909F908F900895EF92FF9263
:104370000F931F93CF93DF93EC01198218821B8256
:104380001A821D821C826115710521F18B01FB01CE
:1043900001900020E9F731977F01E61AF70AB7018B
:1043A0000E94A020811109C0CE01DF91CF911F9101
:1043B0000F91FF90EF900C948620FD82EC82B80163
:1043C00088819981DF91CF911F910F91FF90EF909C
:1043D0000C94A233DF91CF911F910F91FF90EF903A
:1043E0000895CF93DF9300D000D0CDB7DEB7BC01E6
:1043F000CE0101960E94B621BE016F5F7F4F84E718
:1044000099E00E944D20CE0101960E9498202696A8
:104410000FB6F894DEBF0FBECDBFDF91CF910895E8
:10442000CF93DF9300D000D0CDB7DEB7BC01CE0173
:1044300001960E94B621BE016F5F7F4F8EE699E024
:104440000E944D20CE0101960E94982026960FB61C
:10445000F894DEBF0FBECDBFDF91CF910895CF930B
:10446000DF9300D000D0CDB7DEB7BC01CE010196FE
:104470000E94B621BE016F5F7F4F88E699E00E94DF
:104480004D20CE0101960E94982026960FB6F894F2
:10449000DEBF0FBECDBFDF91CF910895CF93DF93E5
:1044A00000D000D0CDB7DEB7BC01CE0101960E948E
:1044B000B621BE016F5F7F4F82E699E00E944D20DA
:1044C000CE0101960E94982026960FB6F894DEBF82
:1044D0000FBECDBFDF91CF910895CF93DF9300D072
:1044E00000D0CDB7DEB7BC01CE0101960E94B62147
:1044F000BE016F5F7F4F8CE599E00E944D20CE0199
:1045000001960E94982026960FB6F894DEBF0FBE43
:10451000CDBFDF91CF910895CF93DF9300D000D02E
:10452000CDB7DEB7BC01CE0101960E94B621BE0117
:104530006F5F7F4F86E599E00E944D20CE01019686
:104540000E94982026960FB6F894DEBF0FBECDBF0E
:10455000DF91CF910895CF93DF9300D000D0CDB7F6
:10456000DEB7BC01CE0101960E94B621BE016F5F8D
:104570007F4F80E599E00E944D20CE0101960E9478
:10458000982026960FB6F894DEBF0FBECDBFDF9100
:10459000CF910895CF93DF9300D000D0CDB7DEB791
:1045A000BC01CE0101960E94B621BE016F5F7F4F14
:1045B0008AE499E00E944D20CE0101960E94982045
:1045C00026960FB6F894DEBF0FBECDBFDF91CF9118
:1045D0000895CF93DF9300D000D0CDB7DEB7BC01F4
:1045E000CE0101960E94B621BE016F5F7F4F84E429
:1045F00099E00E944D20CE0101960E9498202696B7
:104600000FB6F894DEBF0FBECDBFDF91CF910895F6
:10461000CF93DF9300D000D0CDB7DEB7BC01CE0181
:1046200001960E94B621BE016F5F7F4F8EE399E035
:104630000E944D20CE0101960E94982026960FB62A
:10464000F894DEBF0FBECDBFDF91CF910895DF920A
:10465000EF92FF920F931F93CF93DF9300D000D080
:104660001F921F92CDB7DEB78C01D80159964D919C
:104670005C915A974115510551F0ED91FC91048CD4
:10468000F58DE02D70E060E0C8011995EECFF801DE
:10469000D08CF7E0DF9EC00111249C01285E3A4FC8
:1046A0007901D9018D919C91892B59F148E050E015
:1046B000BE016F5F7F4FF801808D0E94141D181698
:1046C000190694F5D801509684E0FE0131960190C8
:1046D0000D928A95E1F78D8190E0982F88272E81A1
:1046E000820F911DF801958B848B8F81282F30E0EC
:1046F000322F22278885820F932F911D928F818FD1
:1047000013C080E591E00E94090B8D2D0E94DF1CF3
:10471000D70116962C911697821B91098D939C9325
:10472000892B21F690E080E028960FB6F894DEBF42
:104730000FBECDBFDF91CF911F910F91FF90EF90F2
:10474000DF9008956F927F928F929F92AF92BF9267
:10475000CF92DF92EF92FF920F931F93CF93DF934D
:10476000CDB7DEB7EC970FB6F894DEBF0FBECDBF66
:104770004C018B013A018DEA93E09A8389831C8670
:104780001B8648EE53E060E070E04D875E876F87E0
:10479000788B23E833E03A872987988F8F8B198E9F
:1047A0001A8E1B8E1C8E28E029A399AB88AB1AAAFF
:1047B0001BAA1CAA1DAA8091000690910106A09137
:1047C0000206B09103068EA39FA3A8A7B9A78B8367
:1047D0009C83AD83BE8318861F82F80120E090E0A1
:1047E00080E06AE03191332309F47AC040ED430F51
:1047F0004A3008F064C0689FA001699F500D1124E1
:10480000CA01C097830F911D37FD9A958F3F91057F
:1048100049F340F34B815C816D817E8180910C0670
:1048200090910D06A0910E06B0910F0648175907FA
:104830006A077B0709F428C20E94350C6F7077273E
:104840007C5FCE0109960E94E31E813009F01FC2F1
:104850008DEA93E09DA38CA38B819C81AD81BE8169
:104860008EA39FA3A8A7B9A745E350E0BE016C5D46
:104870007F4FCE0109960E94B318892B09F04EC0D4
:1048800010E000E0CE0109960E94351C01301105B0
:1048900059F1C801EC960FB6F894DEBF0FBECDBF3C
:1048A000DF91CF911F910F91FF90EF90DF90CF900C
:1048B000BF90AF909F908F907F906F9008953E3201
:1048C00009F0A8CF233009F4A5CFA2E3B0E0AC0FE4
:1048D000BD1FA20FB11D8C932F5F90E080E082CFAF
:1048E000233009F097CF8DABD401ED91FC91048872
:1048F000F589E02D8DEA93E09DA38CA38AA99BA95D
:10490000ACA9BDA98EA39FA3A8A7B9A7A301BE0167
:104910006C5D7F4FC40119958C01BBCF0E94350C93
:1049200078876F8342E050E0BE01695F7F4FCE0120
:1049300009960E942B1E81E090E09DA38CA342E08B
:1049400050E0BE016C5D7F4FCE0109960E942B1E88
:1049500080E091E09DA38CA342E050E0BE016C5D3D
:104960007F4FCE0109960E942B1E1DA21CA242E081
:1049700050E0BE016C5D7F4FCE0109960E942B1E58
:1049800042E050E0BE016C5D7F4FCE0109960E946F
:104990002B1E42E050E0BE016C5D7F4FCE010996B8
:1049A0000E942B1E7801D8018C91882311F1870178
:1049B000F80181916F01882311F08E32C1F4580102
:1049C000AE18BF081A141B0484F4AEAA41E050E0EC
:1049D000BE016A5C7F4FCE0109960E942B1EA50185
:1049E000B701CE0109960E942B1E7601DCCF86010D
:1049F000DFCF1EAA41E050E0BE016A5C7F4FCE01CE
:104A000009960E942B1E00E011E01DA30CA342E0BA
:104A100050E0BE016C5D7F4FCE0109960E942B1EB7
:104A20001DA30CA342E050E0BE016C5D7F4FCE01A0
:104A300009960E942B1ECE0109960E94421C892BCA
:104A400009F41ECF83E0E82EF12CD7C04B815C81A6
:104A50006D817E81898D9A8DAB8DBC8D48175907EC
:104A60006A077B0709F00AC18D8D9E8DC59709F0F5
:104A700005C18AA19BA10DEF1FEF0C970CF4B4C0E8
:104A80004CE050E0BE016C5D7F4FCE0109960E9464
:104A9000E21D8EA19FA19827892798279BAF8AAFF7
:104AA0004F8158852CA13DA14217530709F0E9C059
:104AB00097FFE7C08F7092700BEF1FEF892B09F003
:104AC00093C0AAA4BBA4BA24AB24BA240AEF1FEF54
:104AD000A114B10409F488C010E000E088A599A5EC
:104AE0009827892798270817190708F541E050E00B
:104AF000BE016A5C7F4FCE0109960E94E21D4EA95D
:104B0000442339F050E070E060E0CE0109960E9445
:104B1000E21D8EA98111EACF44E050E070E060E030
:104B2000CE0109960E94E21D0F5F1F4FD7CFD12CF7
:104B3000C12C41E050E0BE01645C7F4FCE0109967C
:104B40000E94E21D4CAD842F807C09F074C0442388
:104B500039F050E070E060E0CE0109960E94E21D5D
:104B60008CAD8111E6CF42E050E0BE01685C7F4F22
:104B7000CE0109960E94E21D42E050E0BE016A5C4F
:104B80007F4FCE0109960E94E21D44E050E070E0A4
:104B900060E0CE0109960E94E21D42E050E0BE01B5
:104BA000665C7F4FCE0109960E94E21D88AD99ADEB
:104BB0004AAD5BAD8115914009F047C00EA91FA910
:104BC0001027012710270130110509F03EC04115BB
:104BD000544009F04DC044E050E0BE016E5C7F4F90
:104BE000CE0109960E94E21DF1E0EF1AF10809F4E6
:104BF00049CE0F3F100709F045CE0E94350C5B01EE
:104C00006C01CE0109960E942723181619060CF490
:104C10001DCF0E94350C6A197B098C099D096938E2
:104C200073418105910538F562E370E080E090E022
:104C30000E94020CE6CF41E050E070E060E0CE015F
:104C400009960E94E21D1CAE8BCF5427452754279E
:104C500070E060E0CE0109960E94E21DEFEFCE1AEF
:104C6000DE0AAC14BD0409F064CF06EF1FEFBCCF21
:104C700007EF1FEFB9CF0FEF1FEFB6CF0EEF1FEF0C
:104C8000B3CF0CEF1FEFB0CF0EEF1FEF02CE10E04F
:104C900000E0FFCDCF93DF93EC018A89882371F088
:104CA000F894DE011D96FE01389684E001900D9285
:104CB0008A95E1F71A8A81E08B8B7894DF91CF9106
:104CC0000895FC018685882349F0F89480859185B4
:104CD00094878387168681E0878778940895CF9399
:104CE000DF93EC018A8D882371F0F894DE015196F0
:104CF000FE01389688E001900D928A95E1F71A8EB0
:104D000081E08B8F7894DF91CF91089585ED80932A
:104D1000BC0080919C0590919D05A0919E05B0914D
:104D20009F050796A11DB11D23E0B695A795979500
:104D300087952A95D1F72091BC0024FD03C01092DD
:104D40009A05089540919C0550919D0560919E059E
:104D500070919F05452B462B472B69F30097A105C2
:104D6000B10541F025E32A95F1F700000197A1096B
:104D7000B109E1CF80919B050C94CC0C1F920F924E
:104D80000FB60F9211242F933F938F939F93AF935E
:104D9000BF938091080590910905A0910A05B091F3
:104DA0000B053091070523E0230F2D3758F50196A9
:104DB000A11DB11D20930705809308059093090557
:104DC000A0930A05B0930B0580910C0590910D05F9
:104DD000A0910E05B0910F050196A11DB11D809304
:104DE0000C0590930D05A0930E05B0930F05BF9190
:104DF000AF919F918F913F912F910F900FBE0F9088
:104E00001F90189526E8230F0296A11DB11DD2CF41
:104E10001F920F920FB60F9211240BB60F922F9381
:104E20003F934F935F936F937F938F939F93AF9332
:104E3000BF93EF93FF938091B900887F803609F488
:104E40004DC008F040C0883209F4A9C028F580316F
:104E500009F49DC0C8F4882309F4FBC0883009F424
:104E600096C0FF91EF91BF91AF919F918F917F91EC
:104E70006F915F914F913F912F910F900BBE0F90CB
:104E80000FBE0F901F901895883109F488C08032AA
:104E900041F78093980514C0803409F49DC040F414
:104EA0008033B9F38833E9F68093980585ECB0C078
:104EB000803509F485C0883509F496C0883489F6B0
:104EC0000E948626CECF883909F48CC038F5883701
:104ED00029F050F4883611F0803719F683E080937A
:104EE0009A051092060557C0883809F47BC08039AE
:104EF00019F0803809F0B5CF80910605803208F0AE
:104F000071C0E091060581E08E0F809306058091C7
:104F1000BB00F0E0EA51FB4F80833DC0803B39F09D
:104F2000E0F4803A09F479C0883A09F09ACF84E035
:104F300080939A051092E5041092E404E091100524
:104F4000F091110519958091E40481110FC081E061
:104F50008093E4041092C40409C0803C09F4A6CFF5
:104F6000883C09F4A3CF883B09F07BCFE091E504AE
:104F700081E08E0F8093E504F0E0EC53FB4F8081DD
:104F80008093BB009091E5048091E40429C0809156
:104F900075058093BB0085EC8093BC0062CF909137
:104FA000970580919605981758F5E091970581E04F
:104FB0008E0F80939705F0E0EA58FA4F8081E9CF91
:104FC000E091970581E08E0F809397058091BB005B
:104FD000F0E0EA58FA4F808390919705809196050A
:104FE0009817C8F285E8D8CFE091970581E08E0F39
:104FF000809397058091BB00F0E0EA58FA4F8083D8
:105000008091990581115CCF81E08093740584EAD9
:105010008093BC0010929A0524CF85EC8093BC004D
:1050200010929A0580910605803230F4E0910605D1
:10503000F0E0EA51FB4F10826091060570E0E091CC
:105040001205F091130586EE94E01995109206056D
:1050500008CF1092980534CF1F920F920FB60F927F
:1050600011240BB60F922F933F934F935F936F933F
:105070007F938F939F93AF93BF93EF93FF9348E2F8
:1050800051E064E271E090E080E00E941619FF9127
:10509000EF91BF91AF919F918F917F916F915F91B0
:1050A0004F913F912F910F900BBE0F900FBE0F901D
:1050B0001F9018951F920F920FB60F9211240BB6E6
:1050C0000F922F933F934F935F936F937F938F93A1
:1050D0009F93AF93BF93EF93FF9348EA50E064EA46
:1050E00070E083E090E00E941619FF91EF91BF916C
:1050F000AF919F918F917F916F915F914F913F9170
:105100002F910F900BBE0F900FBE0F901F90189510
:105110001F920F920FB60F9211240BB60F922F937E
:105120003F934F935F936F937F938F939F93AF932F
:10513000BF93EF93FF9348E950E064E970E082E0A9
:1051400090E00E941619FF91EF91BF91AF919F914E
:105150008F917F916F915F914F913F912F910F9020
:105160000BBE0F900FBE0F901F9018951F920F92BD
:105170000FB60F9211240BB60F922F933F934F93BC
:105180005F936F937F938F939F93AF93BF93EF93AF
:10519000FF9348E850E064E870E081E090E00E940E
:1051A0001619FF91EF91BF91AF919F918F917F91D0
:1051B0006F915F914F913F912F910F900BBE0F9088
:1051C0000FBE0F901F9018951F920F920FB60F925F
:1051D00011240BB60F929F92AF92BF92CF92DF92A3
:1051E000EF92FF920F931F932F933F934F935F93F1
:1051F0006F937F938F939F93AF93BF93EF93FF939F
:10520000CF93DF931F92CDB7DEB78091C60089831D
:105210008981E091150EF0E0E553F24F828780918D
:10522000150E8F5F8093150E8F738093150E8091EE
:10523000180E811117C081E08093180E84E0C82EEB
:1052400096E0B92E25E0D22EEE24E39432E0A32E90
:1052500043E0942E9091160E8091150E981321C064
:105260001092180E0F90DF91CF91FF91EF91BF91A7
:10527000AF919F918F917F916F915F914F913F91EE
:105280002F911F910F91FF90EF90DF90CF90BF90E3
:10529000AF909F900F900BBE0F900FBE0F901F907E
:1052A0001895E091160EF0E0E553F24FF2848091EC
:1052B000160E8F5F8093160E8F738093160E789460
:1052C0008091CB0D833009F480C000F5813009F462
:1052D0005DC0823009F463C0B5E5FB12E1C0809186
:1052E000D20D8F5F8093D20D8091D20D843009F062
:1052F000B1CFE092CB0D1092D20D80911605909116
:1053000017059093D40D8093D30DA4CF853009F465
:1053100071C008F463C08630F9F68091D00D909189
:10532000D10D9F299093D10D8093D00D8091CE0DFA
:105330009091CF0D01979093CF0D8093CE0D00915A
:10534000D30D1091D40D0115110509F496C080916B
:10535000CC0D9091CD0DD80114962D913C911597BF
:105360002817390708F058C0ED91FC910280F381AD
:10537000E02DC8011995E091D30DF091D40D8681EF
:1053800097819093D40D8093D30DD9CF8F2D90E03A
:105390009093CD0D8093CC0DA092CB0D9DCF80919D
:1053A000CC0D9091CD0D9F299093CD0D8093CC0D78
:1053B0008091CC0D9091CD0D8535954519F0909249
:1053C000CB0D8ACF1092CB0D87CF8F2D90E090938D
:1053D000CF0D8093CE0DC092CB0D7ECF8091CE0DA0
:1053E0009091CF0D9F299093CF0D8093CE0DD092A9
:1053F000CB0D72CF8F2D90E09093D10D8093D00D77
:105400008091CE0D9091CF0D01979093CF0D809309
:10541000CE0DB092CB0D60CFF801828193812091A7
:10542000CC0D3091CD0D2817390738F12091CC0DD6
:105430003091CD0D28173907C8F08091CC0D90918F
:10544000CD0D248135812817390780F04091D00D8A
:105450005091D10D6091CC0D7091CD0D0190F081E6
:10546000E02D0190F081E02DC8011995D801169624
:105470000D911C910115110579F68091CC0D90913B
:10548000CD0D02969093CD0D8093CC0D8091CE0DD5
:105490009091CF0D892B09F0AACFE092CB0D1CCFB4
:1054A0001092D20D21CFFF920F931F93CF93DF93D2
:1054B000EC01F62E1B821A82FC01E158FF4F8DE5AC
:1054C0009AE09183808332961082319610821C8EEE
:1054D00087E793E0998388838E010C5F1F4FC80193
:1054E0000E946D0E85E59FE0998788878EE591E1A2
:1054F0009B878A878DE197E19D878C878EE897E16E
:105500009F878E87C8010E949D0E2FEA33E041E0FD
:1055100060EA75E0C8010E94C80AFDA68FEF8EA759
:105520008FA7DF91CF911F910F91FF9008950F9357
:105530001F93CF93DF93EC011B821A82FC01E15889
:10554000FF4F8DE59AE091838083329610823196E9
:1055500010821C8E87E793E0998388838E010C5F0D
:105560001F4FC8010E946D0E84ED9FE099878887C8
:105570008EE591E19B878A878DE197E19D878C87F6
:105580008EE897E19F878E87C8010E949D0E2FEAC3
:1055900033E044E062E276E0C8010E94C80A8FEF7F
:1055A0008DA78EA78FA7DF91CF911F910F9108959F
:1055B000CF93DF93DC018AE092E011969C938E9367
:1055C00013967C936E93129715965C934E93149753
:1055D000E0911605F0911705C6E1D5E0309759F432
:1055E000B0931705A093160517961C921E92169756
:1055F000DF91CF910895848195818417950740F0BC
:105600004817590761F4828193818617970738F408
:10561000EF0126960680F781E02D309761F7179607
:10562000FC93EE931697B983A883E2CF0F931F9351
:10563000CF93DF93EC018A01AB014E5F5F4F0E9475
:10564000D82A8EE192E09983888380E288871A863F
:105650001D861E861F86198B088BDF91CF911F91A7
:105660000F9108950F931F93CF93DF93EC018A015D
:10567000AB014C5F5F4F0E94D82A84E192E099838E
:10568000888343E050E060E270E0CE0108960E941B
:1056900092331C86198A1A8A1B8A1D8B0C8BDF9108
:1056A000CF911F910F910895BF92CF92DF92EF9209
:1056B000FF920F931F93CF93DF93E0EEF5E0CDEAD7
:1056C000D3E0D183C0831282138214821582E6EE66
:1056D000F5E0D183C0831282138214821582ECEE2E
:1056E000F5E0D183C0831282138214821582E2EF27
:1056F000F5E0D183C0831282138214821582E8EF11
:10570000F5E0D183C0831282138214821582E4E013
:10571000F6E0D183C0831282138214821582EEEFE9
:10572000F5E0D183C0831282138214821582EAE0ED
:10573000F6E0D183C0831282138214821582E0E1E5
:10574000F6E0D183C0831282138214821582E6E1CF
:10575000F6E01382128288EEC82E83E0D82EE12C68
:10576000F12CC482D582E682F7828BE593E09183A7
:105770008083EBECFDE01092150E1092160E109245
:10578000170E1092180E10821782E5ECFDE0D183FF
:10579000C0831282138214821582EFEBFDE0D18365
:1057A000C0839CEAB92EB28200E1038311E0148326
:1057B00084E685836BEB73E089EB9DE00E94B62164
:1057C000E3EBFDE0D183C083B2820383148382E0E4
:1057D00085836BEB73E08DEA9DE00E94B621E2E9E0
:1057E000FDE013821282C482D582E682F78283E8CA
:1057F00093E091838083D787C687108A118A128AA3
:10580000138A88E0808FCFE0DDE01B821A828DE56D
:105810009AE090938F0D80938E0D1092900D1092C0
:10582000910D1C8E87E793E09983888383E19DE047
:105830000E946D0E83E590E19987888784E191E16C
:105840009B878A878DE197E19D878C878EE897E11A
:105850009F878E8783E19DE00E949D0E25EB33E0BC
:1058600044E062E276E083E19DE00E94C80A8CE0B9
:105870008DA78FEF8EA78FA78CE89CE00E94972AB8
:1058800089E09CE00E94972A86E89BE00E94972A84
:1058900083E09BE00E94972A80E89AE00E94972A82
:1058A00062E08DEF99E00E94532A6BE08AE799E06D
:1058B0000E94532A69EE73E084E799E00E94B621C2
:1058C00069EE73E08EE699E00E94B62169EE73E01E
:1058D00088E699E00E94B62169EE73E082E699E0DD
:1058E0000E94B62169EE73E08CE599E00E94B62132
:1058F00069EE73E086E599E00E94B62169EE73E0F7
:1059000080E599E00E94B62169EE73E08AE499E0AF
:105910000E94B62169EE73E084E499E00E94B6210A
:1059200069EE73E08EE399E00E94B62169EE73E0C0
:1059300088E399E00E94B62169EE73E082E399E082
:105940000E94B62169EE73E08CE299E00E94B621D4
:1059500069EE73E086E299E00E94B62169EE73E099
:1059600080E299E00E94B62169EE73E08AE199E055
:105970000E94B62169EE73E084E199E00E94B621AD
:1059800069EE73E08EE099E00E94B62169EE73E063
:1059900088E099E00E94B62169EE73E082E099E028
:1059A0000E94B62169EE73E08CEF98E00E94B62168
:1059B00069EE73E086EF98E00E94B62141EF51E274
:1059C00062E374E780EE98E00E94322B40E152E2FD
:1059D00066E374E78AEC98E00E94322B4FE252E2D1
:1059E0006AE374E784EB98E00E94322B4EE452E2C3
:1059F0006EE374E78EE998E00E94322B4DE652E2A6
:105A000062E474E788E898E00E94322B4CE852E2A6
:105A100064E274E786E798E00E94162B4BEA52E2B4
:105A200066E274E784E698E00E94162B4AEC52E2A4
:105A30006EE474E782E598E00E94162B49EE52E28C
:105A400060E574E780E498E00E94162B4EE454E78A
:105A500066E474E782E298E00E94D82AC2E2D8E0C5
:105A60008DE693E09983888347E050E060E270E040
:105A70008AE298E00E949233188A198E1A8E1B8E41
:105A800088E093E29D8F8C8FDF91CF911F910F91D2
:105A9000FF90EF90DF90CF90BF900895CF93DF936A
:105AA000CDB7DEB762970FB6F894DEBF0FBECDBF9D
:105AB000789484B5826084BD84B5816084BD85B5E9
:105AC000826085BD85B5816085BD80916E008160F5
:105AD00080936E001092810080918100826080939B
