:100000000C94C6030C94F7030C94F7030C94F703B9
:100010000C94F7030C94F7030C94F7030C94F70378
:100020000C94F7030C94F7030C94F7030C94F70368
:100030000C94F7030C94F7030C94F7030C94F70358
:100040000C94F7030C94AC150C94F7030C94F70381
:100050000C94F7030C94F7030C94F7030C94D81446
:100060000C94F7030C94DA150C94F7030C94F70333
:100070000C94F7030C94F7030C94F7030C94F70318
:100080000C947E150C94F7030C94F7030C94F7036F
:100090000C94F7030C94F7030C94F7030C94F703F8
:1000A0000C94F7030C94F7030C9450150C94F7037D
:1000B0000C94F7030C94F7030C94F7030C9422159B
:1000C0000C94F7030C94F7030C94F7030C94F703C8
:1000D0000C94F7030C94F7030C94F7030C94F703B8
:1000E0000C94F7030C948B240C9460200C944727F9
:1000F0000C94EF260C94A8250C94CD1E0C943F274D
:100100000C9468240C944B200C947F080C947C1F56
:100110000C9467200C94791E0C943F260C940520B7
:100120000C94EF250C9420220C94FF230C94322580
:100130000C9442040C940F210C941A200C94C00AC5
:100140000C9440250C94C61E0C94E6240C94631E5B
:100150000C94A1250C9428200C94051F0C94DF25E9
:100160000C94C9060C94521F0C94D3210C94DF26D6
:100170000C9437270C944C040C9477250C94D917C5
:100180000C94F3200C94CF260C94E5220C94EC08EC
:100190000C945B250C94B5240C94D5270C9427263D
:1001A0000C9483200C94D8240C9464040C94F903CC
:1001B0000C9458100C9417270C9439210C944C244F
:1001C0000C948E1E0C94D7260C94E1210C94B7212C
:1001D0000C94D91F0C948A1F0C94AA070C945604F3
:1001E0000C9492240C94A0240C942F260C94A00719
:1001F0000C9444200C94BF1E0C9419220C948E086D
:100200000C940F260C94601F0C947D220C944B1FB1
:100210000C94BB200C942E220C94A9210C9407273B
:100220000C94BF250C94AF1F0C94DE200C94AE24CC
:100230000C94C7250C94BD270C9485250C94672736
:100240000C940F250C9470250C944F260C94952734
:100250000C943E240C942F200C94FF260C94D41E56
:100260000C940C230C9458220C9447210C94F424E5
:100270000C945E040C94721E0C94671F0C943C1436
:100280000C94B0210C940C200C94F01E0C94CF25EF
:100290000C9427270C9477260C941F270C9401218B
:1002A0000C9427220C94281F0C94B11E0C94DF246C
:1002B0000C9455210C94DB1E0C942F1F0C9443229C
:1002C0000C947F260C94FB240C9478210C94082524
:1002D0000C942B210C94C5210C9453240C94A52729
:1002E0000C94DE220C94C7260C941F260C941A1F23
:1002F0000C94C5270C9463040C94B5220C943D20F7
:100300000C949F200C9437240C9497260C949411F1
:100310000C9468040C943C220C9447250C94E71F21
:100320000C94C9200C94FD210C9457080C942304C0
:100330000C94131F0C9436200C94A81F0C944F2778
:100340000C94C2220C94D21F0C9487270C94402149
:100350000C94831F0C9413200C9438040C942421C7
:100360000C9476220C94911F0C945F260C94EE1F33
:100370000C946E1F0C94A7070C9435040C945A042B
:100380000C943D1F0C9462250C9432210C94AF26E2
:100390000C948F260C94E7260C94C8060C94FA2033
:1003A0000C94B81E0C94E5200C941D250C942B2560
:1003B0000C945D1E0C949C1E0C94D1240C9461240E
:1003C0000C949B210C94FF250C9448040C94B607C4
:1003D0000C94B30A0C9414240C948B220C94D725FF
:1003E0000C94CA240C947C200C945F270C94F71E68
:1003F0000C94BF260C94AA1E0C944E250C94A72294
:100400000C9491200C946E200C94C2200C94042225
:100410000C940D240C94CC210C94591F0C94930F24
:100420000C946B1E0C94D0200C942F270C94F62166
:100430000C9486070C9422240C94A31E0C9416256D
:100440000C94C9220C9457260C9499240C94B5272B
:100450000C9459200C944A0F0C94B7260C94FE1E51
:100460000C94ED270C94ED240C947F210C94F7222E
:100470000C9484240C94BE210C9408210C942924FF
:100480000C9422280C94FE220C9416210C94E01F4C
:100490000C94DF060C9492220C9430240C946F265A
:1004A0000C94CA070C94AE220C949D270C949325AF
:1004B0000C94D7220C9406240C94AD200C94E91EC5
:1004C0000C946F220C9431040C9471210C94212013
:1004D0000C94E7250C94871E0C94211F0C948A2001
:1004E0000C9469250C9499220C9477270C947E2502
:1004F0000C94EF210C948D210C9417260C948D07ED
:100500000C9475200C94DA210C94A0220C944524B0
:100510000C94A7260C9487260C9424250C94690F20
:100520000C940F270C9439250C945C210C94BC245A
:100530000C9490080C9450040C9407260C940523FA
:100540000C943E040C948C250C944E210C94A62003
:100550000C94D0220C94E21E0C94F5270C94672680
:100560000C94B2070C94801E0C9476240C94BD1F3E
:100570000C94F1070C94A7240C949F260C9435221C
:100580000C9490070C94BB220C94F7260C94DD2756
:100590000C940C1F0C9452200C9413230C94A22145
:1005A0000C94CB1F0C9412220C9463210C94EC201D
:1005B0000C94C41F0C94D7200C9405280C94B725D8
:1005C0000C94DB0C0C94E5270C9451220C941B2406
:1005D0000C9494210C940B220C94030E0C94E8219F
:1005E0000C94BA070C94AD270C941D210C946A212D
:1005F0000C946F270C94B61F0C949A250C943726F4
:100600000C945A240C9484220C947F270C94472633
:100610000C941A230C9457270C944A220C94751F9F
:100620000C9486210C94F7250C948F080C947D244F
:100630000C942D040C94C3240C946F240C94E406A5
:100640000C9419110C94B4200C94441F0C94951E16
:100650000C94FD270C94AF250C9429040C9498203D
:100660000C94361F0C94CD27000020002300260098
:1006700029002C002F0032000001000003010601B8
:10068000090100000A0B02090C0D0E080703040102
:10069000000000000000000000000000000000005A
:1006A0000000000000000000000000000000121127
:1006B000100000000000000000000000000000002A
:1006C00000000000000000000000220025002800BB
:1006D0002B002E003100340002010000050108014A
:1006E0000B0100002100240027002A002D0030000B
:1006F000330001010000040107010A01010210207A
:100700002008081020401020408002010201080447
:1007100002010102040810204080804020100804DB
:100720000201800402018040201008040201080434
:100730000201010204081020408001020408102078
:1007400040800505050507050808080802020202A1
:100750000A0A08080404040401010101010101015D
:100760000303030303030303040707070C0C0C0C28
:100770000C0C0C0C02020202060606060606060611
:100780000B0B0B0B0B0B0B0BD917222811241FBEC5
:10079000CFEFD1E2DEBFCDBF00E00CBF1BE0A0E099
:1007A000B2E0E6EEFFE500E00BBF02C007900D925D
:1007B000AA31B107D9F726E1AAE1BBE001C01D9239
:1007C000A839B207E1F713E0C5ECD3E000E006C0BA
:1007D00021970109802FFE010E94DA2AC43CD1072B
:1007E00080E00807A9F70E94DF190C94E12F0C9410
:1007F0000000019721F481E08093B90B08951092D5
:10080000B90B08958CBD9DBD08958150823108F0CB
:100810005AC0E82FF0E08827EF5EFB4F8F4F0C9413
:10082000DA2A31043504230429042D04630438042E
:100830003E04420448044C04500456045A04630421
:100840005E0464046804809180008F778093800048
:100850000895809180008F7DF9CF80918000877FFF
:10086000F5CF84B58F7784BD089584B58F7DFBCF98
:100870008091B0008F778093B00008958091B00090
:100880008F7DF9CF809190008F77809390000895AD
:10089000809190008F7DF9CF80919000877FF5CF78
:1008A0008091A0008F778093A00008958091A00090
:1008B0008F7DF9CF8091A000877FF5CF80912001B7
:1008C0008F77809320010895809120018F7DF9CF4B
:1008D00080912001877FF5CFCF93DF93282F30E0E1
:1008E000F901EE57F94F8491F901E450F94FD49191
:1008F000F901EE5BF84FC491CC23A1F081110E9465
:100900000504EC2FF0E0EE0FFF1FE859F94FA59119
:10091000B491EC91ED2381E090E009F480E0DF9167
:10092000CF91089580E090E0FACF1F93CF93DF93AB
:10093000282F30E0F901EE57F94F8491F901E45086
:10094000F94FD491F901EE5BF84FC491CC23A9F093
:10095000162F81110E940504EC2FF0E0EE0FFF1F0F
:10096000E853F94FA591B4918FB7F894EC91111118
:1009700008C0D095DE23DC938FBFDF91CF911F910C
:100980000895DE2BF8CFCF93DF9390E0FC01E45085
:10099000F94F24918E5B984FFC0184918823C9F014
:1009A00090E0880F991FFC01EE51F94FA591B49189
:1009B000FC01E853F94FC591D49161110DC09FB767
:1009C000F8948C91209582238C9388812823288306
:1009D0009FBFDF91CF910895623051F49FB7F89493
:1009E0003C91822F809583238C93E8812E2BEFCF2F
:1009F0008FB7F894EC912E2B2C938FBFEACF8633D0
:100A000008F0865320917B00982F9870277F922BB7
:100A100090937B008770806480937C0080917A0043
:100A2000806480937A0080917A0086FDFCCF80916B
:100A300078009091790008953FB7F8948091B30BB6
:100A40009091B40BA091B50BB091B60B26B5A89BB5
:100A500005C02F3F19F00196A11DB11D3FBFBA2F50
:100A6000A92F982F8827BC01CD01620F711D811D10
:100A7000911D42E0660F771F881F991F4A95D1F795
:100A800008958F929F92AF92BF92CF92DF92EF9292
:100A9000FF924B015C010E941C056B017C010E94CE
:100AA0001C056C197D098E099F09683E73408105FC
:100AB0009105A8F321E0821A9108A108B10888EEF7
:100AC000C80E83E0D81EE11CF11C81149104A1041E
:100AD000B10429F7FF90EF90DF90CF90BF90AF90D7
:100AE0009F908F9008952FB7F8946091AF0B7091FD
:100AF000B00B8091B10B9091B20B2FBF0895FC0108
:100B000020812EBD9B012150310941F051810DB44E
:100B100007FEFDCF4EB55EBD4193F5CF6150710923
:100B2000860F971F0DB407FEFDCF2EB5FC01208365
:100B30000895E0910C14F0910D14808190910B14A4
:100B4000892B80830895E0910C14F0910D1490810D
:100B500080910B1480958923808308958EBD0000B9
:100B60000DB407FEFDCF8EB50895AF92BF92CF9220
:100B7000DF92EF92FF920F931F93CF93DF9300D0FA
:100B800000D01F921F92CDB7DEB78C017B016A01A6
:100B900080910F148333E1F45801A40EB51EA01602
:100BA000B10609F46FC00E94A30580EF0E94AE0554
:100BB000812F0E94AE05802F0E94AE050F5F1F4F50
:100BC000F70181917F010E94AE050E949905E7CF50
:100BD0005B01A40EB51E8433C1F40E94A3051983E2
:100BE0000A838D2D80688B83CC8264E070E0CE0117
:100BF00001960E947F05AE14BF0409F441C0F701BD
:100C000081917F010E94AE05F6CF0E94A3050F3FA0
:100C1000110509F028F419820A8384E08B830CC043
:100C200017FD17C019820A8333E0169507953A9588
:100C3000E1F7007E0C600B8386E0C816D104A0F5B6
:100C4000F701DE011496EA15FB0599F081918D9369
:100C5000FACFC80126E0969587952A95E1F7807E20
:100C600019830A830115104C10F48461D7CF8C616D
:100C7000D5CFB6016D5F7F4FCE0101960E947F05F3
:100C80000E949905C60128960FB6F894DEBF0FBEE4
:100C9000CDBFDF91CF911F910F91FF90EF90DF902B
:100CA000CF90BF90AF90089563E070E0CE010196C1
:100CB0000E947F05F70181917F010E94AE05AE146D
:100CC000BF04C1F7DDCFCF93DF931F92CDB7DEB75F
:100CD000898341E050E0BE016F5F7F4F90E080E08C
:100CE0000E94B5050F90DF91CF91089590E020917B
:100CF0000F14233339F40C96982F990F990F990FED
:100D000080E008954896F8CFDA01E0911014F0E001
:100D1000FE2FEE27E60FF71F90E0982F8827A901F6
:100D2000BD018E0F9F1F0C94B505CF93DF931F92CB
:100D30001F92CDB7DEB779836A8322E030E0AE013F
:100D40004F5F5F4F64E070E00E9484060F900F9049
:100D5000DF91CF910895CF93DF931F92CDB7DEB788
:100D60002091101430E0322F2227260F371F90E0F9
:100D7000982F8827498341E050E0BE016F5F7F4F85
:100D8000820F931F0E94B5050F90DF91CF910895B8
:100D90000895CF93DF931F92CDB7DEB76983DC014F
:100DA000ED91FC910280F381E02D41E050E0BE0125
:100DB0006F5F7F4F19950F90DF91CF910895FC01E0
:100DC000818D928D08950895DF92EF92FF920F9397
:100DD0001F93CF93DF931F921F92CDB7DEB7FB0116
:100DE000DC0157961C921E9256972281211109C050
:100DF0002381211106C02481211103C025812223D2
:100E000069F14115510551F17A018F01FC01D08C36
:100E100080E591E00E940204A8014E5F5F4F24E04C
:100E200030E06CE070E08D2D0E948406F982EA8249
:100E300022E030E0AE014F5F5F4F60E170E08D2D4A
:100E40000E94840681E090E00F900F90DF91CF9197
:100E50001F910F91FF90EF90DF90089580E0F3CF06
:100E6000CF93DF93DB01EA01FC01E655F44F4081AB
:100E70005CE0589F9001599F300D112447FF1CC022
:100E800011961C921E9280818F5F80838081A901C0
:100E9000480F511D87FD5A9557FF03C080818C3044
:100EA000ACF08D919C911197049680349C4938F157
:100EB0008D919C91049625C08081A901480F511DF8
:100EC00087FD5A9557FFDFCF8081DDCF8D919C91B3
:100ED0004081240F311D47FD3A95D901AA0FBB1F50
:100EE000A20FB31FA65EB44F11962D913C91820FB5
:100EF000931F998388838081DF91CF91089580E447
:100F00009CE9998388838FEF8083F6CFDC01ED9194
:100F1000FC910190F081E02D19940C970C948607B8
:100F200021E030E0FC0141895289452B11F030E08D
:100F300020E0319521953109FC01328B218B0895F8
:100F4000DC01ED91FC910190F081E02D19940C975A
:100F50000C94A007FC0191E08689811190E09195A5
:100F6000968B0895FC01848595850895FC018489FC
:100F7000958908952EE632E0FC0131832083FB0140
:100F80004089518962897389FC0142835383648358
:100F900075830895DC01ED91FC91048CF58DE02DB5
:100FA0001994FC019191992339F08091C00085FF3B
:100FB000FCCF9093C600F6CF0895CF93DF93EB015B
:100FC0000E94D10788E19BE00E94D107CE010E94D8
:100FD000D1078AE792E00E94D10781E0DF91CF91AB
:100FE00008950F931F93CF93DF93EC018C890E9498
:100FF0006C048C018D890E946C04000F111F082B5A
:101000008E899F898130B9F124F5882359F10E8B9F
:101010008F8918165CF46A897B898E859F850E946A
:10102000DD07882319F08F8981508F8B8F8987FF87
:101030000BC0688979898E859F850E94DD0788238A
:1010400019F08F898F5F8F8BDF91CF911F910F9157
:1010500008958230A9F08330D1F6013029F00230B2
:1010600041F0D5CF023019F491509F8BD0CF013091
:1010700071F69F5FFACF0023B9F30330D1F3C7CFE6
:10108000033091F30023A9F3C2CF0F931F93CF93A3
:10109000DF93EC018B01B801CE010E94DD078823AC
:1010A000D1F381E0DF91CF911F910F910895DC0181
:1010B0001A968C911A9780FF21C01E96ED91FC9193
:1010C0001F973097D9F0F89418968D919C911997A5
:1010D0001A962C911A972E7F1A962C931A97789419
:1010E0001B962D913C911C97822393231D962C9146
:1010F00002C0969587952A95E2F719940895FC0108
:101100008285811105C05187408785E0828705C0AF
:101110008085918584179507B1F7089508950895FE
:1011200090E080E008958F929F92AF92BF92EF92ED
:10113000FF920F931F93CF93DF93CDB7DEB7A197A5
:101140000FB6F894DEBF0FBECDBF7C01FA01CB0114
:1011500019A2223008F42AE08E010F5D1F4F822E63
:10116000912CB12CA12CBF01A50194010E949429BE
:10117000F901CA016A3074F5605DD8016E938D0182
:10118000232B242B252B79F790E080E0109789F012
:10119000FD0101900020E9F73197AF014A1B5B0B7D
:1011A000D701ED91FC910280F381E02DB801C701D8
:1011B0001995A1960FB6F894DEBF0FBECDBFDF9193
:1011C000CF911F910F91FF90EF90BF90AF909F90A4
:1011D0008F900895695CD1CF8F929F92AF92BF920A
:1011E000CF92DF92EF92FF920F931F93CF93DF93F3
:1011F0007C01EB016C0182E0C80ED11C4701E5E0E7
:101200008E0E911C10E000E0F60141916F0150E05C
:1012100070E060E02AE0CE010E9493085C01E88162
:10122000F9810190F081E02D6EE2CE0119958A0DD1
:101230009B1D080F191FC814D90431F7F701458108
:1012400050E070E060E02AE0CE010E949308800F39
:10125000911FDF91CF911F910F91FF90EF90DF9041
:10126000CF90BF90AF909F908F9008950E94EF2CE9
:101270000F931F93CF93DF93EC018881998100979F
:1012800059F02A813B812617370730F081E0DF9142
:10129000CF911F910F9108958B016F5F7F4F0E9437
:1012A0000E2C009759F0998388831B830A832C8125
:1012B0003D81232B59F7FC011082E8CF80E0E7CF76
:1012C000EF92FF920F931F93CF93DF9361157105F8
:1012D00041F480E0DF91CF911F910F91FF90EF904B
:1012E000089541155105B1F07B01EC010C811D8180
:1012F000040F151FB8010E943809882351F3288173
:1013000039818C819D81B701820F931F0E94042D2A
:101310001D830C8381E0DECFCF93DF93EC018881C6
:101320009981009711F00E94852B198218821D82E5
:101330001C821B821A82DF91CF910895EF92FF9257
:101340000F931F93CF93DF93EC017B018A01BA01C6
:101350000E94380981110BC0CE010E948C09CE0178
:10136000DF91CF911F910F91FF90EF9008951D8312
:101370000C83B701888199810E94042DF0CFCF930F
:10138000DF93EC01FB018617970749F060817181BB
:101390006115710541F0448155810E949E09CE017D
:1013A000DF91CF9108950E948C09F9CFFC01118241
:1013B00010821382128215821482FB010190002098
:1013C000E9F73197AF01461B570B0C949E09FC01BE
:1013D00080819181009711F00C94852B0895AF9234
:1013E000BF92CF92DF92EF92FF920F931F93CF9312
:1013F000DF9300D01F92CDB7DEB78C016B017A016D
:1014000080910F148333E9F45B016801C40ED51E8B
:10141000C016D106A9F10E94A3058FE00E94AE0577
:10142000812F0E94AE05802F0E94AE050F5F1F4FD7
:1014300080E00E94AE05F50181935F010E9499054D
:10144000E7CF843369F50E94A30519830A838F2DA2
:101450008F778B83EC8264E070E0CE0101960E946E
:101460007F05A70170E060E0C6010E94FD2CE11439
:10147000F10421F0B701C6010E947F050E94990581
:10148000C7010F900F900F900F90DF91CF911F9198
:101490000F91FF90EF90DF90CF90BF90AF900895A5
:1014A0000E94A3050F3F110509F030F419820A8349
:1014B0001B8263E070E0D1CF17FD0BC019820A8355
:1014C00033E0169507953A95E1F7007E08600B83A7
:1014D000F0CFC80126E0969587952A95E1F7807EA2
:1014E00019830A830115104C18F480618B83E1CFB6
:1014F0008861FCCFCF93DF931F92CDB7DEB72091E9
:10150000101430E0322F2227260F371F90E0982F3B
:10151000882741E050E0BE016F5F7F4F820F931F2D
:101520000E94EF0989810F90DF91CF910895CF93A9
:10153000C82F462F61E070E00E94AB0661E070E0CA
:101540008C2F0E947A0A8111F9CFCF910895CF9301
:10155000C82F80E591E00E94020460E170E08C2FCA
:10156000CF910C94970ACF93DF93EC01888D88304C
:1015700020F40E94A70A88E0888FDF91CF91089518
:10158000CF93FC01C08D80E591E00E94020460E2EF
:1015900070E08C2F0E94970A62E070E08C2F0E940E
:1015A0007A0A84FD16C062E070E08C2F0E947A0AED
:1015B00083FF0AC048E162E070E08C2F0E94AB0616
:1015C00080E090E0CF91089580E591E00E940204D0
:1015D000E3CF40E162E070E08C2F0E94AB0681E037
:1015E000F0CFCF93DF931F92CDB7DEB741E050E04D
:1015F000BE016F5F7F4F90E080E00E94EF0989811C
:101600000F90DF91CF910895CF93DF93C4E1D0E0A5
:101610000E94F10A882361F061E070E080E090E0D0
:101620000E9441052197A1F780E0DF91CF910895B5
:1016300081E0FBCFCF92DF92EF92FF920F931F9347
:10164000CF93DF93CDB7DEB7C454D1090FB6F8946A
:10165000DEBF0FBECDBFFC0182819381A481B58125
:1016600023968CAF9DAFAEAFBFAF239721E02396FB
:101670002FAF239723964CAD5DAD6EAD7FAD239715
:101680004BAB5CAB6DAB7EAB89AF9AAFABAFBCAFD6
:101690008DA79EA7AFA7B8AB28AB4DA55EA56FA53C
:1016A00078A94FA358A769A77AA72EAB4BA95CA925
:1016B0006DA97EA949A35AA36BA37CA38B8F9C8F92
:1016C000AD8FBE8F4EE652E05C8B4B8B3FEF3D8B78
:1016D0003E8B3F8B188E5E874D872AA7CFA0D8A45C
:1016E000E9A4FAA4CF86D88AE98AFA8A2CA309A1A8
:1016F0001AA12BA13CA109871A872B873C875A8303
:1017000049838B839C83AD83BE83809111148111A7
:101710009DC060E372E080E090E00E9441051FB749
:10172000F89480910E14811127C0E7E7F7E08491C7
:10173000E1E3F7E09491E82FF0E0EE0FFF1FEE51A8
:10174000F94FA591B491EC91E92321F461E085E38F
:101750000E94950461E085E30E94C3048CB580611A
:101760008CBD8CB580648CBD61E084E30E94C304B1
:1017700061E083E30E94C30480910E148F5F809325
:101780000E141FBFECE4F7E0E491F0E0EE0FFF1F52
:10179000E853F94F8591949190930D1480930C1414
:1017A000E6E0F7E0E491E0930B1461E08AE00E9448
:1017B000C3040E94990580E591E00E94020484E33D
:1017C00080930F1480E80E9463060E94040B882314
:1017D00009F472C088E00E9463060E94F10A883012
:1017E00009F06AC080E10E9463060E94F10A80311C
:1017F00009F062C080E00E9463060E94F10A182F7F
:1018000081115AC041E050E0BE016D5B7F4F8FE116
:1018100090E00E94EF0924968FAD2497833009F061
:101820004BC080E48093101442E06EE170E0812FA1
:101830000E94AB0642E06FE170E0812F0E94AB0690
:101840001F5F183089F781E08093111480E591E0E3
:101850000E94020446E050E064E072E089E090E01B
:101860000E94B50544E050E0BE016D5F7F4F8FE000
:1018700090E00E94B50544E050E0BE01615F7F4FFB
:1018800081E090E00E94B50544E050E0BE016B5E4F
:101890007F4F85E090E00E94B50581E08C878985C7
:1018A0009A85AB85BC858093321490933314A093B2
:1018B0003414B09335146FC087E380930F1480E81D
:1018C0000E9463060E94040B882339F188E00E947D
:1018D00063060E94F10A883001F580E10E946306E8
:1018E0000E94F10A182F8031C1F480E00E94630643
:1018F0000E94F10A811111C041E050E0BE016D5B10
:101900007F4F89E390E00E94EF0924968FAD2497E2
:10191000843019F41093101496CF83E380930F143E
:1019200080E80E9463060E94040B882391F180E105
:101930000E9463060E94F10A803159F582E10E94FB
:1019400063060E94F10A823121F580E00E9463065D
:101950000E94F10A81111DC084E08093101415E5E6
:1019600025961FAF259741E050E0BE016C5B7F4F8D
:101970008BE190E00E94B50524961FAF249741E0CB
:1019800050E0BE016D5B7F4F8AE190E00E94B5059B
:101990005ACF10920F14CC5BDF4F0FB6F894DEBF16
:1019A0000FBECDBFDF91CF911F910F91FF90EF90B0
:1019B000DF90CF9008951F93CF93DF931F92CDB701
:1019C000DEB7FC01108D183020F5818D928D892BAA
:1019D00001F180E591E00E940204812F0E947606C9
:1019E00027E0129FF0011124ED52FC4E2281338139
:1019F000377041E050E0BE016F5F7F4F820F931F51
:101A00000E94EF09898190E00F90DF91CF911F91A3
:101A100008958FEF9FEFF8CFDA01E0911014F0E016
:101A2000FE2FEE27E60FF71F90E0982F8827A901D9
:101A3000BD018E0F9F1F0C94EF098F929F92AF9262
:101A4000BF92CF92DF92EF92FF920F931F93CF93AB
:101A5000DF93CDB7DEB760970FB6F894DEBF0FBE49
:101A6000CDBF7C0190910F14911115C018E0812F0A
:101A700060960FB6F894DEBF0FBECDBFDF91CF9159
:101A80001F910F91FF90EF90DF90CF90BF90AF909C
:101A90009F908F90089508E0933309F404E06B0160
:101AA00080E591E00E9402049E012F5F3F4F5901A3
:101AB000490110E063E070E0812F0E947A0AF4018E
:101AC00081934F018823C1F01F5F0113F3CF00E022
:101AD000F50181915F018D3149F0883139F08A51EA
:101AE000823020F00F5F1013F3CFC0CF60E170E0C1
:101AF000802F0E94970A102FA12EB12C83EE93E025
:101B00000197F1F742E870E060E0812F0E94AB0698
:101B10004FEF62E070E0812F0E94AB06B601C11466
:101B2000D10491F4809102029091030201968115F3
:101B3000F0EC9F0708F464C09093030280930202C4
:101B40006091020270910302812F0E94950686E047
:101B5000E0E1F2E0DE01199601900D928A95E1F73D
:101B6000F70183818F778C8784818D8785818E872C
:101B7000A7014E5F5F4F24E030E06CE070E0812F02
:101B80000E948406DF86C88A22E030E0AE01415F11
:101B90005F4F60E170E0812F0E94840626E030E014
:101BA000AE01475F5F4F66E070E0812F0E948406C0
:101BB00061E070E0812F0E94970A27E02A9DC00112
:101BC0002B9D900D11249C012D523C4E7901F90161
:101BD0001182108222E030E0AE01415F5F4F68E287
:101BE00070E0812F0E940C0D8F8598899827892796
:101BF0009827F7019383828316821582148237CF48
:101C000080E090EC99CFCF92DF92EF92FF920F930A
:101C10001F93CF93DF9300D000D0CDB7DEB78C01F8
:101C20006B017A01FC01808D883010F40E94A70AB4
:101C30008EE692E09A838983F60182819381A48162
:101C4000B5818B839C83AD83BE83B701CE010196A2
:101C50000E941D0DF801808F8830A0F4F586E4867F
:101C6000128E118E81E026960FB6F894DEBF0FBE5D
:101C7000CDBFDF91CF911F910F91FF90EF90DF903B
:101C8000CF90089580E0EFCFFF920F931F93CF93F3
:101C9000DF931F921F92CDB7DEB7F82E22E030E01F
:101CA000AE014F5F5F4F66E270E00E940C0D09814C
:101CB0001A8110270127102722E030E0AE014F5F84
:101CC0005F4F66E270E08F2D0E940C0D89819A8132
:101CD0009827892798270817190749F4C8010F90F2
:101CE0000F90DF91CF911F910F91FF9008958C017C
:101CF000E3CF4F925F927F928F929F92AF92BF926B
:101D0000CF92DF92EF92FF920F931F93CF93DF93C7
:101D10001F921F92CDB7DEB7782E6B014A01A82E15
:101D2000B12C27E0829FC0011124FC01ED52FC4E32
:101D30007F010081118180E591E00E940204081575
:101D4000190554F4872D0E94440EF70126818C0159
:101D5000021B1109118300830115110529F563E0A8
:101D600070E0872D0E947A0A843159F0882349F067
:101D700001E010E08C3111F410E000E011950195C4
:101D80001109C8010F900F90DF91CF911F910F9112
:101D9000FF90EF90DF90CF90BF90AF909F908F908B
:101DA0007F905F904F900895801691060CF4840107
:101DB00087E08A9DF0018B9DF00D1124ED52FC4EC1
:101DC000E280F380C114D10451F12701F7E05F22D2
:101DD000872D0E947606840D951D20910F142733C0
:101DE00009F453C09801240D351D2130384008F402
:101DF0004CC020E038E0490184189508A401B601E0
:101E00000E94EF092601480C591C6801C818D9081E
:101E1000872D0E947606A601B2010E94EF09E00E0E
:101E2000F11E87E08A9DF0018B9DF00D1124ED528B
:101E3000FC4EF382E28220813181201B310B318301
:101E400020838681800F912F911D8A3F910510F488
:101E5000232BF1F487E08A9DF0018B9DF00D112476
:101E6000ED52FC4E1682F982EA8222E030E0AE01A9
:101E70004F5F5F4F68E270E0872D0E94840660E448
:101E800070E0872D0E94970A7CCFA801B601C5CFCC
:101E9000868377CFCF93DF93FC01218D328D21157F
:101EA000310529F48FEF9FEFDF91CF910895EC0179
:101EB000808D4217530708F0A9010E94790E181669
:101EC000190684F7298D3A8D281B390B3A8F298FF3
:101ED000EBCF0F931F93CF93DF931F92CDB7DEB756
:101EE000FC01218D328D232B41F48FEF9FEF0F905A
:101EF000DF91CF911F910F9108958C0141E050E047
:101F0000BE016F5F7F4FFC01808D0E94790E181615
:101F100019065CF7F801818D928D0197928F818F60
:101F2000898190E0E4CF3F924F925F926F927F92CF
:101F30008F929F92AF92BF92CF92DF92EF92FF92D9
:101F40000F931F93CF93DF931F921F92CDB7DEB7EE
:101F50005C014B01342E452EFC0166887788508C3D
:101F600080E591E00E94020422E030E0AE014F5F84
:101F70005F4F60E270E0852D0E940C0DC980DA8011
:101F8000DC24CD24DC2422E030E0AE014F5F5F4F43
:101F900060E270E0852D0E940C0D89819A8198275E
:101FA00089279827C816D90609F079C0E52CF12CA5
:101FB00067E0569EF0011124ED52FC4ED582C4829A
:101FC000032D142DC016D10608F4860122E030E05E
:101FD000AE014F5F5F4F64E270E0852D0E940C0DF3
:101FE00089819A81982789279827680E791E9301FD
:101FF000377040910F14433309F053C088E0E80E66
:10200000F11CFE2CEE24FF0CFF0CFF0CC9018E0D01
:102010009F1D473309F449C0A901400F511F4130AA
:10202000584008F442C060E078E06B01C21AD30A5D
:10203000A601B4010E94B505A8014C195D09B401BF
:102040006C0D7D1DC7010E94B505600E711E798261
:102050006A8222E030E0AE014F5F5F4F64E270E0E1
:10206000852D0E948406F50186899789800F911F2E
:10207000978B868BC8010F900F90DF91CF911F91A6
:102080000F91FF90EF90DF90CF90BF90AF909F9017
:102090008F907F906F905F904F903F9008956C016C
:1020A00072CFE0E1EE0EF11CACCFA801B401CBCFB2
:1020B0008F929F92AF92BF92CF92DF92EF92FF9258
:1020C0000F931F93CF93DF9300D000D000D01F92C7
:1020D000CDB7DEB76C015B01FC01808D883010F458
:1020E0000E94A70A80910F14811117C088E0F601A1
:1020F000808F80E02A960FB6F894DEBF0FBECDBF6A
:10210000DF91CF911F910F91FF90EF90DF90CF90D3
:10211000BF90AF909F908F90089508E0833309F4AB
:1021200004E080E591E00E9402049E012F5F3F4F92
:102130004901790110E063E070E0812F0E947A0A82
:10214000F70181937F018823C1F01F5F0113F3CF53
:10215000F12CF40181914F018D3149F0883139F032
:102160008A51823020F0F3941F11F3CFBFCF60E18A
:1021700070E08F2D0E94970A1F2DE12EF12C83EE27
:1021800093E00197F1F742E070E060E0812F0E9458
:10219000AB064FEF62E070E0812F0E94AB06B50105
:1021A000A114B10489F48091020290910302019676
:1021B0008115F0EC9F07D0F1909303028093020207
:1021C0006091020270910302812F0E94950661E0E6
:1021D00070E0812F0E94970A27E02E9DC0012F9D5D
:1021E000900D11249C012D523C4E7901F901118270
:1021F000108222E030E0AE01475F5F4F68E270E09E
:10220000812F0E940C0D89859A8598278927982708
:10221000F70193838283168215821482F601108F50
:10222000B586A486128E118E81E064CF80E090EC9A
:10223000C3CFDF92EF92FF920F931F93CF93DF9361
:1022400000D000D01F921F92CDB7DEB78C01D8010D
:1022500059964D915C915A974115510551F0ED9168
:10226000FC91048CF58DE02D70E060E0C8011995BB
:10227000EECFF801D08CF7E0DF9EC00111249C0165
:102280002D523C4E7901D9018D919C91892B59F1A8
:1022900048E050E0BE016F5F7F4FF801808D0E94E3
:1022A000790E1816190694F5D801509684E0FE01AF
:1022B000319601900D928A95E1F78D8190E0982FEB
:1022C00088272E81820F911DF801958B848B8F8139
:1022D000282F30E0322F22278885820F932F911DDF
:1022E000928F818F13C080E591E00E9402048D2DB2
:1022F0000E94440ED70116962C911697821B9109C5
:102300008D939C93892B21F690E080E028960FB660
:10231000F894DEBF0FBECDBFDF91CF911F910F911B
:10232000FF90EF90DF9008956F927F928F929F922F
:10233000AF92BF92CF92DF92EF92FF920F931F93D3
:10234000CF93DF93CDB7DEB7EC970FB6F894DEBF2F
:102350000FBECDBF4C018B013A018EE692E09A830D
:1023600089831C861B8648EE53E060E070E04D8751
:102370005E876F87788B24E432E03A872987988FCD
:102380008F8B198E1A8E1B8E1C8E28E029A399AB79
:1023900088AB1AAA1BAA1CAA1DAA8091321490917C
:1023A0003314A0913414B09135148EA39FA3A8A721
:1023B000B9A78B839C83AD83BE8318861F82F801E7
:1023C00020E090E080E06AE03191332309F47AC0A4
:1023D00040ED430F4A3008F064C0689FA001699F38
:1023E000500D1124CA01C097830F911D37FD9A9596
:1023F0008F3F910549F340F34B815C816D817E8174
:1024000080913E1490913F14A0914014B0914114DA
:10241000481759076A077B0709F428C20E94730509
:102420006F7077277C5FCE0109960E94581081302B
:1024300009F01FC28EE692E09DA38CA38B819C8144
:10244000AD81BE818EA39FA3A8A7B9A745E350E0A5
:10245000BE016C5D7F4FCE0109960E94E406892B78
:1024600009F04EC010E000E0CE0109960E94B30AC8
:102470000130110559F1C801EC960FB6F894DEBF92
:102480000FBECDBFDF91CF911F910F91FF90EF90C5
:10249000DF90CF90BF90AF909F908F907F906F9084
:1024A00008953E3209F0A8CF233009F4A5CFA2E366
:1024B000B0E0AC0FBD1FA20FB11D8C932F5F90E059
:1024C00080E082CF233009F097CF8DABD401ED911E
:1024D000FC910488F589E02D8EE692E09DA38CA303
:1024E0008AA99BA9ACA9BDA98EA39FA3A8A7B9A798
:1024F000A301BE016C5D7F4FC40119958C01BBCF58
:102500000E94730578876F8342E050E0BE01695FE7
:102510007F4FCE0109960E94930F81E090E09DA32A
:102520008CA342E050E0BE016C5D7F4FCE01099666
:102530000E94930F80E091E09DA38CA342E050E0C5
:10254000BE016C5D7F4FCE0109960E94930F1DA2C4
:102550001CA242E050E0BE016C5D7F4FCE010996A7
:102560000E94930F42E050E0BE016C5D7F4FCE01B0
:1025700009960E94930F42E050E0BE016C5D7F4FD0
:10258000CE0109960E94930F7801D8018C9188237F
:1025900011F18701F80181916F01882311F08E32CA
:1025A000C1F45801AE18BF081A141B0484F4AEAA73
:1025B00041E050E0BE016A5C7F4FCE0109960E9467
:1025C000930FA501B701CE0109960E94930F7601E2
:1025D000DCCF8601DFCF1EAA41E050E0BE016A5C7D
:1025E0007F4FCE0109960E94930F00E011E01DA3DA
:1025F0000CA342E050E0BE016C5D7F4FCE01099616
:102600000E94930F1DA30CA342E050E0BE016C5D3D
:102610007F4FCE0109960E94930FCE0109960E942A
:10262000C00A892B09F41ECF83E0E82EF12CD7C015
:102630004B815C816D817E81898D9A8DAB8DBC8D46
:10264000481759076A077B0709F00AC18D8D9E8DCF
:10265000C59709F005C18AA19BA10DEF1FEF0C974B
:102660000CF4B4C04CE050E0BE016C5D7F4FCE0175
:1026700009960E944A0F8EA19FA198278927982723
:102680009BAF8AAF4F8158852CA13DA142175307BC
:1026900009F0E9C097FFE7C08F7092700BEF1FEF52
:1026A000892B09F093C0AAA4BBA4BA24AB24BA24F2
:1026B0000AEF1FEFA114B10409F488C010E000E094
:1026C00088A599A59827892798270817190708F535
:1026D00041E050E0BE016A5C7F4FCE0109960E9446
:1026E0004A0F4EA9442339F050E070E060E0CE017B
:1026F00009960E944A0F8EA98111EACF44E050E06A
:1027000070E060E0CE0109960E944A0F0F5F1F4FF4
:10271000D7CFD12CC12C41E050E0BE01645C7F4F8B
:10272000CE0109960E944A0F4CAD842F807C09F09F
:1027300074C0442339F050E070E060E0CE010996A7
:102740000E944A0F8CAD8111E6CF42E050E0BE01FD
:10275000685C7F4FCE0109960E944A0F42E050E02C
:10276000BE016A5C7F4FCE0109960E944A0F44E089
:1027700050E070E060E0CE0109960E944A0F42E00E
:1027800050E0BE01665C7F4FCE0109960E944A0F61
:1027900088AD99AD4AAD5BAD8115914009F047C058
:1027A0000EA91FA91027012710270130110509F0D4
:1027B0003EC04115544009F04DC044E050E0BE0118
:1027C0006E5C7F4FCE0109960E944A0FF1E0EF1A2E
:1027D000F10809F449CE0F3F100709F045CE0E94D9
:1027E00073055B016C01CE0109960E941911181640
:1027F00019060CF41DCF0E9473056A197B098C0918
:102800009D09693873418105910538F562E370E0EF
:1028100080E090E00E944105E6CF41E050E070E0AA
:1028200060E0CE0109960E944A0F1CAE8BCF542760
:102830004527542770E060E0CE0109960E944A0FB8
:10284000EFEFCE1ADE0AAC14BD0409F064CF06EF38
:102850001FEFBCCF07EF1FEFB9CF0FEF1FEFB6CFC2
:102860000EEF1FEFB3CF0CEF1FEFB0CF0EEF1FEF48
:1028700002CE10E000E0FFCDCF92DF92EF92FF9208
:102880000F931F93CF93DF9300D000D0CDB7DEB767
:102890008C01FC0180899789992309F44EC00E941C
:1028A000FF04DC0121E030E04FEF5FEF0E948C2954
:1028B0002FEF33E040E050E00E94622921503109BF
:1028C0004F4F5F4FF801C388D488E588F688B90177
:1028D00090E080E00E946728A70196010E94C52928
:1028E00020E030E040EA50E40E94322AA70196013D
:1028F0000E94C629F801638B748B858B968B0E948E
:10290000AB2A6B01CB01F801218932896217730769
:1029100030F4A9014C195D094138510530F52817EB
:102920003907C8F4A601421B530B41385105E8F49E
:1029300080384FEF9407C8F412C00E94FF042FEFB5
:102940003FEFDC010E94E22A2FEF33E040E050E04D
:102950000E946229B7CF8038FFEF9F07D0F48038FC
:102960009105B8F482179307A0F44AE0BE016F5FA7
:102970007F4FC6010E943D28BE016F5F7F4FF80167
:10298000868597850E94DD07882319F0F801D28A91
:10299000C18A26960FB6F894DEBF0FBECDBFDF9179
:1029A000CF911F910F91FF90EF90DF90CF900895FE
:1029B0001F920F920FB60F9211242F933F938F9374
:1029C0009F93AF93BF938091AF0B9091B00BA09169
:1029D000B10BB091B20B3091AE0B23E0230F2D372A
:1029E00058F50196A11DB11D2093AE0B8093AF0B3E
:1029F0009093B00BA093B10BB093B20B8091B30B3B
:102A00009091B40BA091B50BB091B60B0196A11D9E
:102A1000B11D8093B30B9093B40BA093B50BB093FF
:102A2000B60BBF91AF919F918F913F912F910F90D6
:102A30000FBE0F901F90189526E8230F0296A11D38
:102A4000B11DD2CF1F920F920FB60F9211240BB669
:102A50000F922F933F934F935F936F937F938F9337
:102A60009F93AF93BF93EF93FF9348E251E064E2EB
:102A700071E090E080E00E943007FF91EF91BF91FC
:102A8000AF919F918F917F916F915F914F913F9106
:102A90002F910F900BBE0F900FBE0F901F901895A7
:102AA0001F920F920FB60F9211240BB60F922F9315
:102AB0003F934F935F936F937F938F939F93AF93C6
:102AC000BF93EF93FF9348EA50E064EA70E083E03D
:102AD00090E00E943007FF91EF91BF91AF919F91DD
:102AE0008F917F916F915F914F913F912F910F90B7
:102AF0000BBE0F900FBE0F901F9018951F920F9254
:102B00000FB60F9211240BB60F922F933F934F9352
:102B10005F936F937F938F939F93AF93BF93EF9345
:102B2000FF9348E950E064E970E082E090E00E94A1
:102B30003007FF91EF91BF91AF919F918F917F915E
:102B40006F915F914F913F912F910F900BBE0F901E
:102B50000FBE0F901F9018951F920F920FB60F92F5
:102B600011240BB60F922F933F934F935F936F9364
:102B70007F938F939F93AF93BF93EF93FF9348E817
:102B800050E064E870E081E090E00E943007FF913F
:102B9000EF91BF91AF919F918F917F916F915F91D5
:102BA0004F913F912F910F900BBE0F900FBE0F9042
:102BB0001F9018951F920F920FB60F9211240BB60B
:102BC0000F929F92AF92BF92CF92DF92EF92FF92BD
:102BD0000F931F932F933F934F935F936F937F9325
:102BE0008F939F93AF93BF93EF93FF93CF93DF9315
:102BF0001F92CDB7DEB78091C60089838981E091AD
:102C00009016F0E0EA5BF94E8287809190168F5F14
:102C1000809390168F7380939016809193168111F4
:102C200017C081E08093931684E0C82E96E0B92EF9
:102C300025E0D22EEE24E39432E0A32E43E0942E3E
:102C40009091911680919016981321C0109293162E
:102C50000F90DF91CF91FF91EF91BF91AF919F9135
:102C60008F917F916F915F914F913F912F911F9124
:102C70000F91FF90EF90DF90CF90BF90AF909F901B
:102C80000F900BBE0F900FBE0F901F901895E09104
:102C90009116F0E0EA5BF94EF284809191168F5F15
:102CA000809391168F738093911678948091461635
:102CB000833009F480C000F5813009F45DC08230B2
:102CC00009F463C0B5E5FB12E1C080914D168F5F3A
:102CD00080934D1680914D16843009F0B1CFE0926B
:102CE000461610924D168091481490914914909375
:102CF0004F1680934E16A4CF853009F471C008F4A6
:102D000063C08630F9F680914B1690914C169F293E
:102D100090934C1680934B168091491690914A16C9
:102D2000019790934A168093491600914E16109180
:102D30004F160115110509F496C080914716909120
:102D40004816D80114962D913C91159728173907EC
:102D500008F058C0ED91FC910280F381E02DC8018C
:102D60001995E0914E16F0914F16868197819093B8
:102D70004F1680934E16D9CF8F2D90E09093481622
:102D800080934716A09246169DCF8091471690914A
:102D900048169F29909348168093471680914716AE
:102DA000909148168535954519F0909246168ACF30
:102DB0001092461687CF8F2D90E090934A168093FD
:102DC0004916C09246167ECF8091491690914A16B8
:102DD0009F2990934A1680934916D092461672CF37
:102DE0008F2D90E090934C1680934B16809149164E
:102DF00090914A16019790934A1680934916B09283
:102E0000461660CFF8018281938120914716309158
:102E100048162817390738F120914716309148167F
:102E200028173907C8F080914716909148162481D9
:102E300035812817390780F040914B1650914C1678
:102E400060914716709148160190F081E02D019035
:102E5000F081E02DC8011995D80116960D911C91AD
:102E60000115110579F68091471690914816029642
:102E700090934816809347168091491690914A1670
:102E8000892B09F0AACFE09246161CCF10924D165E
:102E900021CFEF920F931F93CF93DF93EC01802FFD
:102EA000E7EBFBE0A081B181BB87AA87D183C08318
:102EB0001E821F82188619861A821B821C821D821E
:102EC000EAE2F2E0F983E883E4E3F2E0FD87EC87ED
:102ED0007F876E87598B488B3B8B2A8B0C8BED8AB7
:102EE00062E00E94C30462E08D890E94C3041F8ACD
:102EF0008C890E946C048C018D890E946C04000FE7
:102F0000111F082B0E8BDF91CF911F910F91EF9026
:102F10000895CF93DF93EC01842F2091B70B30916C
:102F2000B80B3B872A87D093B80BC093B70B1E8290
:102F30001F82188619861A821B821C821D822AE132
:102F400032E03983288324E232E03D872C877F8773
:102F50006E87488B1F8A60E00E94C3048F89882394
:102F6000C9F088890E94FF04DC0121E030E04FEFC6
:102F70005FEF0E948C292FEF33E040E050E00E9489
:102F80006229215031094F4F5F4F3A8B298BDF91D6
:102F9000CF91089588890E94FF042FEF3FEFDC0155
:102FA0000E94E22A2FEF33E040E050E00E946229C5
:102FB000ECCFEF92FF920F931F93CF93DF93CEE668
:102FC000D2E0D0931314C0931214109214141092E0
:102FD00015141092161410921714D0931914C0934C
:102FE000181410921A1410921B1410921C141092A0
:102FF0001D14D0931F14C0931E141092201410920D
:1030000021141092221410922314D0932514C093EB
:10301000241410922614109227141092281410923F
:103020002914D0932B14C0932A1410922C141092AC
:103030002D1410922E1410922F14D0933714C09385
:103040003614109238141092391410923A141092C7
:103050003B14D0933114C093301410923214109258
:1030600033141092341410923514D0933D14C0933D
:103070003C1410923E1410923F141092401410927F
:103080004114D0934314C0934214109244141092EC
:1030900045141092461410924714109290161092F4
:1030A0009116109292161092931610924616109244
:1030B0004D16D0934116C0934016109242161092AE
:1030C00043161092441610924516D0933B16C093A7
:1030D0003A168CEAF82EF0923C1600E100933D1669
:1030E00011E010933E1685E680933F166CE772E080
:1030F00084E396E10E94D609D0932F16C0932E1632
:10310000F092301600933116109332168AE08093B5
:10311000331669E872E088E296E10E94D609D093FE
:103120002316C0932216F0922416009325161093AE
:1031300026168AE68093271661E972E08CE196E113
:103140000E94D609109204161092031688EE93E09E
:10315000A0E0B0E08093051690930616A0930716A2
:10316000B093081684E492E09093021680930116BF
:10317000D0931016C0930F161092111610921216BB
:10318000109213161092141688E08093191610925C
:10319000F8151092F9151092FA151092FB1510926D
:1031A00000168DEC9CECACECBDE38093FC15909389
:1031B000FD15A093FE15B093FF150E9473056BE7F4
:1031C00072E082EF95E10E94D60920E046E36EE9C5
:1031D00072E08AED95E10E94891720E048E36AEAEF
:1031E00072E082EC95E10E94891720E049E368EBE8
:1031F00072E08AEA95E10E94891720E04AE364ECD4
:1032000072E082E995E10E94891720E04BE361EDCD
:1032100072E08AE795E10E94891720E04EE360EEB4
:1032200072E082E695E10E94891720E04FE36CEEA0
:1032300072E08AE495E10E94891720E040E461EFA2
:1032400072E082E395E10E94891720E042E462E0A7
:1032500073E08AE195E10E94891720E041E463E18F
:1032600073E082E095E10E94891720E044E465E282
:1032700073E08AEE94E10E94891720E043E467E35B
:1032800073E082ED94E10E94891720E045E46AE44E
:1032900073E08AEB94E10E94891792E1E92E03E141
:1032A00028E533E04CE553E060E673E082EA94E120
:1032B0000E94491724E1E22E05E128E533E04CE5C0
:1032C00053E069E773E08AE894E10E9449173EE021
:1032D000E32E0FE022E933E04AE953E062EA73E0CB
:1032E00082E794E10E94491741E1E42E00E122E9DE
:1032F00033E04AE953E06AEA73E08AE594E10E9428
:1033000049178AE392E090934B1480934A1488E81B
:1033100094E790934D1480934C1490934F148093A2
:103320004E14E0914814F0914914A8E4B4E13097A8
:1033300041F58AE494E190934914809348141092E3
:103340005114109250141092541484E792E0909308
:103350004B1480934A1480E090E19093561480932C
:1033600055148CE08093571489EF93E0909359148F
:1033700080935814DF91CF911F910F91FF90EF90A0
:10338000089584819581883824E7920740F0883831
:10339000944761F4828193818838944738F4DF013F
:1033A00016960680F781E02D309759F7F093511467
:1033B000E09350148AE494E18D939C93C4CFCF930F
:1033C000DF93CDB7DEB7AC970FB6F894DEBF0FBE74
:1033D000CDBF789484B5826084BD84B5816084BD9E
:1033E00085B5826085BD85B5816085BD80916E00A3
:1033F000816080936E0010928100809181008260D4
:103400008093810080918100816080938100809110
:1034100080008160809380008091B10084608093FF
:10342000B1008091B00081608093B00080919100E4
:1034300082608093910080919100816080939100DF
:10344000809190008160809390008091A1008260C3
:103450008093A1008091A10081608093A100809160
:10346000A00081608093A000809121018260809300
:1034700021018091210181608093210180912001AF
:1034800081608093200180917A00846080937A002B
:1034900080917A00826080937A0080917A008160C6
:1034A00080937A0080917A00806880937A001092ED
:1034B000C10016E161E0812F0E94C3041F5F163234
:1034C000C9F762E0812F0E94C3041F5F1233C9F75E
:1034D0004FEB5BE023ED33E18FEB9FE0E3EDF1E1B8
:1034E00011921192DC011D921D92CD01DA011D9203
:1034F0001D921D921D92AD012E173F0789F78091F5
:1035000064008D7F809364001092C50083E08093F7
:10351000C4001092C00086E08093C20088E98093C6
:10352000C1008EE692E09A83898380913C16909147
:103530003D16A0913E16B0913F168B839C83AD83C0
:10354000BE838E010F5F1F4FC8010E941A0B6CE6ED
:103550007EE181E096E10E945810FBE0EF2EF12C15
:10356000DD24D39487E30E94FF04BC01990F880BEC
:10357000990B0E94692820910016222309F47FC02C
:103580008090F8159090F915A090FA15B090FB1561
:10359000A50194010E94C5292091FC153091FD15CB
:1035A0004091FE155091FF150E94A428A501940199
:1035B0000E94C6296093F8157093F9158093FA1547
:1035C0009093FB15B1E0EB1AF10861F6882483941F
:1035D000912CAA24A394B12CE090B70BF090B80BD7
:1035E000E114F104C9F10E9473052B013C01F701BC
:1035F00086819781A085B185B301A201481B590B33
:103600006A0B7B0B82819381A481B5818417950716
:10361000A607B70778F40190F081E02D0280F381CE
:10362000E02DC7011995D70116964D925D926D92C6
:103630007C9219978091B70B9091B80BF701228576
:103640003385232B11F493878287D7011A96ED9047
:10365000FC90E816F90659F6E0904814F0904914E9
:10366000E114F104B9F0D701ED91FC910480F581EA
:10367000E02DC7011995F701E680F780F1CF60933F
:10368000F8157093F9158093FA159093FB15D09265
:10369000001698CF43ED51E190E080E0FF24FA94CA
:1036A000009709F0D1C1F8B89401082E01C0220F8B
:1036B0000A94EAF7209522B9EBE3F1E03197F1F7AC
:1036C00029B1022E000C330B232F221F2227221F89
:1036D00029831A8222B322FB222720F92B831C8202
:1036E00022B3269521702D831E8222B321702F8351
:1036F000188620910901022E000C330B232F221F64
:103700002227221F29871A862091090126FB2227BA
:1037100020F92B871C862091090125FB222720F9FF
:103720002D871E8620910901229521702F87188AE6
:103730002091090123FB222720F9298B1A8A209145
:10374000090122FB222720F92B8B1C8A20910901D9
:10375000269521702D8B1E8AB88EAF8ABA8EA98EBF
:10376000BC8EAB8EBE8EAD8EB8A2AF8EF80130E0AF
:1037700020E061917191DA01A20FB31F672B09F06C
:103780007AC18D929C922E5F3F4F2032310589F78E
:1037900001964A5E5F4F8031910509F081CF5FEB62
:1037A000C52E5FE0D52E63ED262E61E1362EF12C7D
:1037B000E12C77247394D1018D919D911D0120916D
:1037C000BF11222309F45AC11092BF11F60191834F
:1037D0008083BFEFEB1AFB0AE2E0CE0ED11CE114AE
:1037E000F1E0FF0641F78091D2118823B9F00E94E1
:1037F0007305C090CE11D090CF11E090D011F09011
:10380000D1116C157D058E059F0540F067E872E0CB
:1038100085EF9AE00E9445081092D2118091CD1157
:103820008823B9F00E947305C090C911D090CA11C5
:10383000E090CB11F090CC116C157D058E059F05A5
:1038400040F067E872E088ED9AE00E944508109227
:10385000D2118091C8118823B9F00E947305C090DD
:10386000C411D090C511E090C611F090C7116C152D
:103870007D058E059F0540F067E872E086EE9AE0D0
:103880000E9445081092D2110E947305AB01BC0141
:103890008091C0119091C111A091C211B091C3113A
:1038A0000A96A11DB11D481759076A077B0708F43E
:1038B000C3C087E30E94FF04BC01990F880B990BDA
:1038C0000E94692820910016222311F40C941528D7
:1038D000C090F815D090F915E090FA15F090FB150E
:1038E000A70196010E94C5292091FC153091FD1574
:1038F0004091FE155091FF150E94A428A701960142
:103900000E94C6296093F8157093F9158093FA15F3
:103910009093FB156091F8157091F9158091FA1547
:103920009091FB150E94A42ADB012FE030E00E9459
:10393000E22A28EE33E040E050E00E94622969016B
:1039400080910002909101028217930709F466C0EA
:1039500030930102209300026BE772E0CE0187965C
:103960000E94D6091AA219A21CA21BA21EA21DA265
:103970004AE0B801C6010E943228F80101900020F7
:10398000E9F73197AF01401B510BB801CE01819689
:103990000E949E0966E07BE0C8010E94D6094DA105
:1039A0005EA169A17AA1C8010E946009811103C0CA
:1039B000C8010E948C09B801CE0187960E94BF09F8
:1039C000C8010E94E709CE0181960E94E7094EE6F0
:1039D00052E05A8349838091241690912516A09134
:1039E0002616B09127168B839C83AD83BE834CE64D
:1039F0005EE1B80181E096E10E94E4064BA55CA57A
:103A00006FA178A581E096E10E94930F81E096E195
:103A10000E94C00ACE0187960E94E7090E947305A2
:103A2000665F7F4F8F4F9F4F6093C0117093C1119E
:103A30008093C2119093C31180E090E0892B09F428
:103A4000CBCD0E940000C8CD8830910579F4F2B842
:103A50002FE030E0281B390BB40102C0660F771F3E
:103A60002A95E2F79B01209528B926CE883091054A
:103A70000CF41ACEEDCF1D921C9285CED6012D915D
:103A80003C912817390709F4A4CE0E9473059701C9
:103A9000220F331F220F331FF901E154F44F2F017E
:103AA0002081318142815381261737074807590702
:103AB00008F08FCE0E9473056C5E7F4F8F4F9F4F33
:103AC000D2016D937D938D939C931397FF92EF9208
:103AD000E9EBF3E0FF93EF934AEB5BE05F934F93E7
:103AE0000E940B2D0F900F900F900F900F900F9042
:103AF000D6018D919C911A8219821C821B821E8292
:103B00001D8262EF75E1892B09F0A2C5C8010E94F0
:103B1000BF0941E050E067E872E0C8010E94600917
:103B2000811103C0C8010E948C09B80182EF95E1A0
:103B30000E94BF09C8010E94E709B4EBEB16F1042B
:103B400008F07FC5F7018827E755F24E8F4F0C9498
:103B5000DA2A5D1E6B1E721E791E801E871E8E1E47
:103B6000951E9C1EA31EAA1EB11EB81EBF1EC61EF9
:103B7000CD1ED41EDB1EE21EE91EF01EF71EFE1E29
:103B8000051F0C1F131F1A1F211F281F2F1F361F51
:103B90003D1F441F4B1F521F591F601F671F6E1F81
:103BA000751F7C1F831F8A1F911FA81FAF1FB61F81
:103BB000BD1FC41FCB1FD21FD91FE01FE71FEE1F61
:103BC00005200C2013201A20212028202F20362009
:103BD0003D2044204B2052205920602067206E2039
:103BE00075207C2083208A20912098209F20A62069
:103BF000AD20B420BB20C220C920D020D720DE2099
:103C0000631EE520EC20F320FA20012108210F217A
:103C100016211D212421631E2B213221392140210F
:103C200047214E2155215C2163216A217121782190
:103C30007F2186218D2194219B21631EA221A92110
:103C4000B021B721BE21C521CC21D321DA21E12128
:103C5000E821EF21F621631E631EFD21631E631E12
:103C6000631E04220B2212221922202227222E2236
:103C700035223C22631E43224A22512258226F22BF
:103C800076227D2284228B2292229922A022A722B0
:103C9000AE22631EB522BB22631EC222C922D022DD
:103CA000D722DE22E522F722FE2205230C2313234E
:103CB0001A23631E631E631E631E67E872E08EEBA9
:103CC00093E00E944508F101329780819181D601ED
:103CD0008D939C937ECD67E872E08DEC93E00E941B
:103CE0004508F1CF67E872E08CED93E00E9445084B
:103CF000EACF67E872E08BEE93E00E944508E3CFDD
:103D000068E973E08AEF93E00E944508DCCF67E83A
:103D100072E08EE094E00E944508D5CF67E872E03B
:103D20008EE194E00E944508CECF67E872E08EE213
:103D300094E00E944508C7CF67E872E08EE394E004
:103D40000E944508C0CF68E973E08EE494E00E94C9
:103D50004508B9CF6CE078E083E694E00E9445081E
:103D6000B2CF67E872E083E794E00E944508ABCFEA
:103D700067E872E082E894E00E944508A4CF67E813
:103D800072E081E994E00E9445089DCF67E872E007
:103D900080EA94E00E94450896CF67E872E08AEFD7
:103DA00093E00E9445088FCF67E872E08FEA94E0C5
:103DB0000E94450888CF67E872E08FEB94E00E948C
:103DC000450881CF67E872E08FEC94E00E944508D7
:103DD0007ACF67E872E08FED94E00E94450873CFD8
:103DE00067E872E08EE494E00E9445086CCF68E9D1
:103DF00073E083E694E00E94450865CF67E872E0CF
:103E00008FEE94E00E9445085ECF67E872E08EEF87
:103E100094E00E94450857CF67E872E08DE095E096
:103E20000E94450850CF67E872E08CE195E00E945F
:103E3000450849CF6CE078E08AEF93E00E9445089E
:103E400042CF67E872E08BE295E00E9445083BCFE5
:103E500067E872E08BE395E00E94450834CF67E89D
:103E600072E08BE495E00E9445082DCF67E872E090
:103E70008BE595E00E94450826CF6CE078E08EE463
:103E800094E00E9445081FCF67E872E08BE695E05A
:103E90000E94450818CF67E872E083E795E00E942A
:103EA000450811CF67E872E082E895E00E94450876
:103EB0000ACF67E872E081E995E00E94450803CFE8
:103EC00067E872E080EA95E00E944508FCCE67E86A
:103ED00072E08FEA95E00E944508F5CE67E872E04F
:103EE0008EEB95E00E944508EECE67E872E08EEC1E
:103EF00095E00E944508E7CE67E872E08EED95E018
:103F00000E944508E0CE67E872E08EEE95E00E94E0
:103F10004508D9CE67E872E08EEF95E00E9445082B
:103F2000D2CE67E872E086E196E00E944508709282
:103F3000CD110E9473056C507E4F8F4F9F4F609341
:103F4000C9117093CA118093CB119093CC11BBCE41
:103F500067E872E08AE296E00E944508B4CE67E81E
:103F600072E089E396E00E944508ADCE67E872E012
:103F700088E496E00E944508A6CE67E872E087E5EF
:103F800096E00E9445089FCE67E872E086E696E0DC
:103F90000E94450898CE67E872E085E796E00E94A7
:103FA000450891CE67E872E085E896E00E944508F2
:103FB0008ACE67E872E085E996E00E94450883CEE4
:103FC00067E872E085EA96E00E9445087CCE67E8E3
:103FD00072E085EB96E00E94450875CE67E872E0D6
:103FE00082EC96E00E9445087092C8110E94730509
:103FF0006C507E4F8F4F9F4F6093C4117093C511CB
:104000008093C6119093C7115ECE67E872E087ED8A
:1040100096E00E94450857CE67E872E083EE96E08E
:104020000E94450850CE67E872E08FEE96E00E944D
:10403000450849CE67E872E08BEF96E00E9445089C
:1040400042CE67E872E087E097E00E9445083BCEE9
:1040500067E872E08DE097E00E94450834CE67E89B
:1040600072E083E197E00E9445082DCE67E872E098
:1040700089E197E00E94450826CE67E872E081E278
:1040800097E00E9445081FCE67E872E088E297E05B
:104090000E94450818CE67E872E080E397E00E942E
:1040A000450811CE67E872E088E397E00E94450872
:1040B0000ACE67E872E084E497E00E94450803CEE8
:1040C00067E872E080E597E00E944508FCCD67E86C
:1040D00072E08CE597E00E944508F5CD67E872E054
:1040E00088E697E00E944508EECD67E872E08EE62C
:1040F00097E00E944508E7CD67E872E084E797E023
:104100000E944508E0CD67E872E08AE797E00E94E8
:104110004508D9CD67E872E082E897E00E9445083B
:10412000D2CD67E872E08CE897E00E944508CBCDDD
:1041300067E872E084E997E00E944508C4CD67E82B
:1041400072E08BE997E00E944508BDCD67E872E018
:1041500087EA97E00E944508B6CD67E872E083EBF6
:1041600097E00E944508AFCD67E872E08FEB97E0DB
:104170000E944508A8CD67E872E08BEC97E00E94AA
:104180004508A1CD67E872E081ED97E00E944508FF
:104190009ACD67E872E087ED97E00E94450893CDDD
:1041A00067E872E08DED97E00E9445088CCD68E9E4
:1041B00073E085EE97E00E94450885CD68E973E0DD
:1041C00081EF97E00E9445087ECD67E872E082E0CB
:1041D00098E00E94450877CD67E872E08EE098E0AD
:1041E0000E94450870CD67E872E08AE198E00E947D
:1041F000450869CD67E872E086E298E00E944508CC
:1042000062CD67E872E082E398E00E9445085BCDEA
:1042100067E872E08AE398E00E94450854CD67E8B9
:1042200072E080E498E00E9445084DCD6CE078E0B3
:1042300088E498E00E94450846CD67E872E085EE84
:1042400097E00E9445083FCD6CE078E081EF97E071
:104250000E94450838CD67E872E080E598E00E944A
:10426000450831CD67E872E08CE598E00E9445088A
:104270002ACD67E872E088E698E00E94450823CDE1
:1042800067E872E084E798E00E9445081CCD6CE086
:1042900078E080E898E00E94450815CD67E872E074
:1042A00088E898E00E9445080ECD67E872E08FE844
:1042B00098E00E94450807CD67E872E087E998E03A
:1042C0000E94450800CD6CE078E085EE97E00E9402
:1042D0004508F9CC68E973E081EA98E00E94450856
:1042E000F2CC67E872E08CEA98E00E944508EBCCDB
:1042F0006CE078E089EB98E00E944508E4CC6CE043
:1043000078E087EC98E00E944508DDCC6CE078E02E
:1043100085ED98E00E944508D6CC68E973E082EE0E
:1043200098E00E944508CFCC68E973E080E898E007
:104330000E944508C8CC67E872E082EF98E00E94CE
:104340004508C1CC67E872E080E099E00E9445082A
:10435000BACC65EA77E085EE97E00E944508B3CCD9
:1043600067E872E08FE099E00E944508ACCC67E80E
:1043700072E080E299E00E944508A5CC68E973E00C
:1043800089EB98E00E9445089ECC68E973E087ECD1
:1043900098E00E94450897CC68E973E085ED98E0C5
:1043A0000E94450890CC6CE078E082EE98E00E9494
:1043B000450889CC67E872E089E299E00E944508E7
:1043C00082CC68E973E085E399E00E9445087BCCE4
:1043D00067E872E085E499E00E94450874CC67E8DC
:1043E00072E084E599E00E9445086DCC62E477E0D4
:1043F00085EE97E00E94450866CC68E973E08AE4A0
:1044000093E00E9445085FCC67E872E081E699E09E
:104410000E94450858CC67E872E085E399E00E9465
:10442000450851CC67E872E080E799E00E944508B2
:104430004ACC67E872E08EE799E00E94450843CCD9
:104440006CE078E08CE899E00E9445083CCC68E993
:1044500073E087E999E00E94450835CC68E973E08C
:104460008CEA99E00E9445082ECC67E872E08BEB5D
:1044700099E00E94450827CC67E872E089EC99E052
:104480000E94450820CC68E973E086ED99E00E941F
:10449000450819CC67E872E087EE99E00E9445086C
:1044A00012CC6CE078E085E399E00E9445080BCCE3
:1044B00067E872E087EF99E00E9445087092D21198
:1044C0000E9473056C507E4F8F4F9F4F6093CE11AB
:1044D0007093CF118093D0119093D111F4CB68E9F0
:1044E00073E08BE09AE00E944508EDCB68E973E049
:1044F0008CE899E00E944508E6CB6CE078E087E91B
:1045000099E00E944508DFCB6CE078E08CEA99E006
:104510000E944508D8CB67E872E086E19AE00E94E5
:104520004508D1CB67E872E083E29AE00E94450833
:10453000CACB67E872E081E39AE00E944508C3CBEA
:104540006CE078E086ED99E00E944508BCCB67E816
:1045500072E086E49AE00E944508B5CB65EA77E010
:1045600085E399E00E944508AECB6CE078E08BE0F3
:104570009AE00E94450867E872E086E59AE00E94AA
:104580004508A1CB67E872E081E69AE00E94450801
:104590009ACB67E872E084E79AE00E94450893CBE3
:1045A00067E872E080E89AE00E9445088CCB6CE0F6
:1045B00078E08CE89AE00E94450885CB68E973E0D2
:1045C0008CE89AE00E9445087ECB8091B90B882345
:1045D00039F068E973E08CE99AE00E94450873CBF2
:1045E00067E872E08CE99AE00E9445086CCB62E4CF
:1045F00077E085E399E00E94450865CB67E872E0C3
:104600008AEA9AE00E9445085ECB67E872E081EB97
:104610009AE00E94450857CB67E872E087EB9AE082
:104620000E94450850CB67E872E08DEB9AE00E944B
:10463000450849CB67E872E083EC9AE00E944508A0
:1046400042CB67E872E089EC9AE00E9445083BCBD8
:10465000C8010E94BF0941E050E068E973E0C80169
:104660000E946009811103C0C8010E948C09B80131
:1046700082EF95E10E94BF09C8010E94E709E4EBBF
:10468000EE16F10408F0C9C4F7018827E55BFC4D7C
:104690008F4F0C94DA2AFF2306240D241424631E62
:1046A0001B24222429243024631E37243E2445243D
:1046B0004C245324631E5A24612468246F24631EEF
:1046C000372476247D2484248B24631E9224992409
:1046D000A024A724631EAE24B524BC24C324CA246A
:1046E000D124D824DF24E624ED24F424FB24082557
:1046F0000F2516251D2524252B2532253925402556
:1047000047254E255B2562256925702577257E2561
:1047100085258C2593259A25A125A825AF25B72584
:10472000BF25C725CF25D725DF25E725EF25F72589
:10473000FF2507260F2617261F2627262F26372672
:10474000631E3F26631E47264F2657265F26672691
:104750006F2677267F26631E3F26631E87268F26B9
:1047600097269F26A726AF26B726BF26631EC726F5
:10477000CF26D726DF26E726EF26A726F726631EB5
:10478000FF26631E07270F27D726DF26E726EF26FB
:104790001727631E1F272727631E631E631E2F27ED
:1047A000631E631E631E3727631E3F2747274F275D
:1047B00057275F2767276F27631E77277F27631E8B
:1047C000872795274F2757275F279D27A527AD27A1
:1047D0007727B527631E631E9527BD27631EC52750
:1047E000CD27D527DD27DD27631E631EE527ED27AF
:1047F000F527FD270528631E631E631E631E68E9F7
:1048000073E08EEB93E00E9445085DCA68E973E0AF
:104810008DEC93E00E94450856CA68E973E08CED80
:1048200093E00E9445084FCA68E973E08BEE93E07D
:104830000E94450848CA68E973E08EE094E00E944F
:10484000450841CA68E973E08EE194E00E9445089A
:104850003ACA68E973E08EE294E00E94450833CAE0
:1048600068E973E08EE394E00E9445082CCA67E88B
:1048700072E083E694E00E94450825CA68E973E087
:1048800083E794E00E9445081ECA68E973E082E865
:1048900094E00E94450817CA68E973E081E994E052
:1048A0000E94450810CA68E973E080EA94E00E941B
:1048B000450809CA68E973E08FEA94E00E94450858
:1048C00002CA68E973E08FEB94E00E944508FBC9D7
:1048D00068E973E08FEC94E00E944508F4C968E948
:1048E00073E08FED94E00E944508EDC968E973E03C
:1048F0008FEE94E00E944508E6C968E973E08EEF08
:1049000094E00E944508DFC968E973E08DE095E016
:104910000E944508D8C968E973E08CE195E00E94DF
:104920004508D1C968E973E08BE295E00E9445082B
:10493000CAC968E973E08BE395E00E944508C3C9E2
:1049400068E973E08BE495E00E944508BCC968E91A
:1049500073E08BE595E00E944508B5C968E973E00E
:104960008BE695E00E944508AEC968E973E083E7ED
:1049700095E00E944508A7C968E973E082E895E0E0
:104980000E944508A0C968E973E081E995E00E94AA
:10499000450899C968E973E080EA95E00E944508F6
:1049A00092C968E973E08FEA95E00E9445088BC9D7
:1049B00068E973E08EEB95E00E94450884C968E9D8
:1049C00073E08EEC95E00E9445087DC968E973E0CC
:1049D0008EED95E00E94450876C968E973E08EEE99
:1049E00095E00E9445086FC968E973E08EEF95E095
:1049F0000E94450868C968E973E088ED9AE00E9462
:104A0000450868E973E086E196E00E9445085BC9C5
:104A100068E973E08AE296E00E94450854C968E9B3
:104A200073E089E396E00E9445084DC968E973E0A8
:104A300088E496E00E94450846C968E973E087E586
:104A400096E00E9445083FC968E973E086E696E073
:104A50000E94450838C968E973E085E796E00E943E
:104A6000450831C968E973E085E896E00E94450889
:104A70002AC968E973E085E996E00E94450823C9E0
:104A800068E973E085EA96E00E9445081CC968E978
:104A900073E085EB96E00E94450815C968E973E06C
:104AA00086EE9AE00E94450868E973E082EC96E0A1
:104AB0000E94450808C968E973E087ED96E00E9406
:104AC000450801C968E973E083EE96E00E94450855
:104AD000FAC868E973E08FEE96E00E944508F3C8D3
:104AE00068E973E08BEF96E00E944508ECC868E93E
:104AF00073E087E097E00E944508E5C868E973E045
:104B00008DE097E00E944508DEC868E973E083E124
:104B100097E00E944508D7C868E973E089E197E00B
:104B20000E944508D0C868E973E081E297E00E94DE
:104B30004508C9C868E973E088E297E00E94450823
:104B4000C2C868E973E080E397E00E944508BBC8EB
:104B500068E973E088E397E00E944508B4C868E913
:104B600073E084E497E00E9445080C94631E68E9B2
:104B700073E080E597E00E9445080C94631E68E9A5
:104B800073E08CE597E00E9445080C94631E68E989
:104B900073E088E697E00E9445080C94631E68E97C
:104BA00073E08EE697E00E9445080C94631E68E966
:104BB00073E084E797E00E9445080C94631E68E95F
:104BC00073E08AE797E00E9445080C94631E68E949
:104BD00073E082E897E00E9445080C94631E68E940
:104BE00073E08CE897E00E9445080C94631E68E926
:104BF00073E084E997E00E9445080C94631E68E91D
:104C000073E08BE997E00E9445080C94631E68E905
:104C100073E087EA97E00E9445080C94631E68E9F8
:104C200073E083EB97E00E9445080C94631E68E9EB
:104C300073E08FEB97E00E9445080C94631E68E9CF
:104C400073E08BEC97E00E9445080C94631E68E9C2
:104C500073E081ED97E00E9445080C94631E68E9BB
:104C600073E087ED97E00E9445080C94631E68E9A5
:104C700073E08DED97E00E9445080C94631E67E891
:104C800072E081EF97E00E9445080C94631E68E98A
:104C900073E082E098E00E9445080C94631E68E986
:104CA00073E08EE098E00E9445080C94631E68E96A
:104CB00073E08AE198E00E9445080C94631E68E95D
:104CC00073E086E298E00E9445080C94631E68E950
:104CD00073E082E398E00E9445080C94631E68E943
:104CE00073E08AE398E00E9445080C94631E68E92B
:104CF00073E080E498E00E9445080C94631E68E924
:104D000073E088E498E00E9445080C94631E68E90B
:104D100073E080E598E00E9445080C94631E68E902
:104D200073E08CE598E00E9445080C94631E68E9E6
:104D300073E088E698E00E9445080C94631E68E9D9
:104D400073E084E798E00E9445080C94631E67E8CE
:104D500072E080E898E00E9445080C94631E68E9C0
:104D600073E088E898E00E9445080C94631E68E9A7
:104D700073E08FE898E00E9445080C94631E68E990
:104D800073E087E998E00E9445080C94631E67E889
:104D900072E081EA98E00E9445080C94631E68E97D
:104DA00073E08CEA98E00E9445080C94631E67E863
:104DB00072E089EB98E00E9445080C94631E67E856
:104DC00072E087EC98E00E9445080C94631E67E847
:104DD00072E085ED98E00E9445080C94631E67E838
:104DE00072E082EE98E00E9445080C94631E68E928
:104DF00073E082EF98E00E9445080C94631E68E916
:104E000073E080E099E00E9445080C94631E68E915
:104E100073E08FE099E00E9445080C94631E68E9F6
:104E200073E080E299E00E9445080C94631E68E9F3
:104E300073E089E299E00E9445080C94631E68E9DA
:104E400073E085E499E00E9445080C94631E68E9CC
:104E500073E084E599E00E9445080C94631E67E8BE
:104E600072E08AE493E00E9445080C94631E68E9AE
:104E700073E081E699E00E9445080C94631E68E99E
:104E800073E080E799E00E9445080C94631E68E98E
:104E900073E08EE799E00E9445080C94631E67E872
:104EA00072E08CE899E00E9445080C94631E67E864
:104EB00072E087E999E00E9445080C94631E67E858
:104EC00072E08CEA99E00E9445080C94631E68E940
:104ED00073E08BEB99E00E9445080C94631E68E92F
:104EE00073E089EC99E00E9445080C94631E67E822
:104EF00072E086ED99E00E9445080C94631E68E913
:104F000073E087EE99E00E9445080C94631E68E9FF
:104F100073E085EF9AE00E94450868E973E087EF47
:104F200099E00E9445080C94631E67E872E08BE0EC
:104F30009AE00E9445080C94631E68E973E086E1DC
:104F40009AE00E9445080C94631E68E973E083E2CE
:104F50009AE00E9445080C94631E68E973E081E3BF
:104F60009AE00E9445080C94631E68E973E086E4A9
:104F70009AE00E9445080C94631E68E973E086E598
:104F80009AE00E9445080C94631E68E973E081E68C
:104F90009AE00E9445080C94631E68E973E084E778
:104FA0009AE00E9445080C94631E68E973E080E86B
:104FB0009AE00E9445080C94631E67E872E08CE852
:104FC0009AE00E9445080C94631E68E973E08AEA3F
:104FD0009AE00E9445080C94631E68E973E081EB37
:104FE0009AE00E9445080C94631E68E973E087EB21
:104FF0009AE00E9445080C94631E68E973E08DEB0B
:105000009AE00E9445080C94631E68E973E083EC03
:105010009AE00E9445080C94631E68E973E089ECED
:105020009AE00E9445080C94631E6093F8157093F3
:10503000F9158093FA159093FB1581E08093001683
:105040000C948A1C82EF95E10E94E7098CE196E1BD
:105050000E94E70988E296E10E94E70984E396E16D
:105060000C94E709BB274A3031F4992322F4BDE2BE
:10507000909581959F4F0C943E28BB27FB015527A7
:10508000AA27880F991FAA1FA41710F0A41B8395A5
:105090005051B9F7A05DAA3308F0A95DA19300971C
:1050A00079F7B111B1931192CB010C945728DC011F
:1050B000FC01672F71917723E1F7329704C07C914F
:1050C0006D9370836291AE17BF07C8F30895E8949B
:1050D00009C097FB3EF490958095709561957F4F40
:1050E0008F4F9F4F9923A9F0F92F96E9BB279395EE
:1050F000F695879577956795B795F111F8CFFAF4FE
:10510000BB0F11F460FF1BC06F5F7F4F8F4F9F4F2E
:1051100016C0882311F096E911C0772321F09EE88C
:10512000872F762F05C0662371F096E8862F70E0F2
:1051300060E02AF09A95660F771F881FDAF7880FCC
:105140009695879597F908950E94B7280C94282979
:105150000E941A2938F00E94212920F0952311F08D
:105160000C9411290C94172911240C945C290E9489
:10517000392970F3959FC1F3950F50E0551F629F39
:10518000F001729FBB27F00DB11D639FAA27F00DA0
:10519000B11DAA1F649F6627B00DA11D661F829FC7
:1051A0002227B00DA11D621F739FB00DA11D621FAC
:1051B000839FA00D611D221F749F3327A00D611DC9
:1051C000231F849F600D211D822F762F6A2F1124AB
:1051D0009F5750409AF0F1F088234AF0EE0FFF1FDE
:1051E000BB1F661F771F881F91505040A9F79E3F35
:1051F000510580F00C9411290C945C295F3FE4F375
:10520000983ED4F3869577956795B795F795E7958A
:105210009F5FC1F7FE2B880F911D9695879597F993
:10522000089597F99F6780E870E060E008959FEF28
:1052300080EC089500240A9416161706180609062D
:10524000089500240A9412161306140605060895FC
:10525000092E0394000C11F4882352F0BB0F40F484
:10526000BF2B11F460FF04C06F5F7F4F8F4F9F4FC4
:10527000089557FD9058440F551F59F05F3F71F046
:105280004795880F97FB991F61F09F3F79F08795AD
:105290000895121613061406551FF2CF4695F1DF36
:1052A00008C0161617061806991FF1CF86957105C6
:1052B000610508940895E894BB2766277727CB01FA
:1052C00097F90895052E97FB1EF400940E94792902
:1052D00057FD07D00E94942907FC03D04EF40C948C
:1052E000792950954095309521953F4F4F4F5F4F0D
:1052F000089590958095709561957F4F8F4F9F4F42
:1053000008950E94B629A59F900DB49F900DA49F6B
:10531000800D911D11240895B7FF0C9481290E94DE
:105320008129821B930B0895A1E21A2EAA1BBB1B95
:10533000FD010DC0AA1FBB1FEE1FFF1FA217B30761
:10534000E407F50720F0A21BB30BE40BF50B661F77
:10535000771F881F991F1A9469F76095709580953B
:1053600090959B01AC01BD01CF010895A29FB001B2
:10537000B39FC001A39F700D811D1124911DB29F89
:10538000700D811D1124911D08955058BB27AA2727
:105390000E94DD290C9428290E941A2938F00E94C5
:1053A000212920F039F49F3F19F426F40C94172991
:1053B0000EF4E095E7FB0C941129E92F0E9439299E
:1053C00058F3BA17620773078407950720F079F43A
:1053D000A6F50C945B290EF4E0950B2EBA2FA02DA8
:1053E0000B01B90190010C01CA01A0011124FF2792
:1053F000591B99F0593F50F4503E68F11A16F0408D
:10540000A22F232F342F4427585FF3CF469537958B
:105410002795A795F0405395C9F77EF41F16BA0B50
:10542000620B730B840BBAF09150A1F0FF0FBB1FFE
:10543000661F771F881FC2F70EC0BA0F621F731F47
:10544000841F48F4879577956795B795F7959E3FA4
:1054500008F0B0CF9395880F08F09927EE0F979535
:10546000879508950E94462A0C9428290E94212994
:1054700058F00E941A2940F029F45F3F29F00C945B
:10548000112951110C945C290C9417290E94392977
:1054900068F39923B1F3552391F3951B550BBB2763
:1054A000AA2762177307840738F09F5F5F4F220FA8
:1054B000331F441FAA1FA9F335D00E2E3AF0E0E89F
:1054C00032D091505040E695001CCAF72BD0FE2FE9
:1054D00029D0660F771F881FBB1F2617370748077D
:1054E000AB07B0E809F0BB0B802DBF01FF27935835
:1054F0005F4F3AF09E3F510578F00C9411290C94BF
:105500005C295F3FE4F3983ED4F3869577956795E1
:10551000B795F7959F5FC9F7880F911D9695879569
:1055200097F90895E1E0660F771F881FBB1F621788
:1055300073078407BA0720F0621B730B840BBA0B46
:10554000EE1F88F7E09508950E94AB2A6894B11188
:105550000C945C2908950E94412988F09F5798F087
:10556000B92F9927B751B0F0E1F0660F771F881F68
:10557000991F1AF0BA95C9F714C0B13091F00E9482
:105580005B29B1E008950C945B29672F782F882759
:10559000B85F39F0B93FCCF3869577956795B395A9
:1055A000D9F73EF490958095709561957F4F8F4F18
:1055B0009F4F0895EE0FFF1F881F8BBF0790F69136
:1055C000E02D19940E94B629B7FF0895821B930B12
:1055D00008950F931F93CF93DF938230910510F4BA
:1055E00082E090E0E0919616F091971630E020E08E
:1055F000B0E0A0E0309799F42115310509F44AC0D4
:10560000281B390B24303105D8F58A819B8161151F
:10561000710589F1FB0193838283FE0111C04081F2
:1056200051810281138148175907E0F04817590743
:1056300099F4109761F012960C93129713961C939D
:105640003296CF01DF91CF911F910F910895009372
:10565000961610939716F4CF2115310551F0421785
:10566000530738F0A901DB019A01BD01DF01F80100
:10567000C1CFEF01F9CF9093971680939616CDCFB7
:10568000FE01E20FF31F8193919322503109398378
:105690002883D7CF2091941630919516232B41F46F
:1056A00020910C0230910D023093951620939416A0
:1056B00020910A0230910B022115310541F42DB7DA
:1056C0003EB740910E0250910F02241B350BE09122
:1056D0009416F0919516E217F307A0F42E1B3F0BDA
:1056E0002817390778F0AC014E5F5F4F2417350754
:1056F00048F04E0F5F1F5093951640939416819378
:1057000091939FCFF0E0E0E09CCFCF93DF930097A1
:10571000E9F0FC01329713821282A0919616B091A3
:105720009716ED0130E020E01097A1F4208131813F
:10573000820F931F209194163091951628173907E0
:1057400009F061C0F0939516E0939416DF91CF9124
:105750000895EA01CE17DF07E8F54A815B819E01D3
:1057600041155105B1F7E901FB83EA83499159914C
:10577000C40FD51FEC17FD0761F48081918102965B
:10578000840F951FE90199838883828193819B838C
:105790008A83F0E0E0E012968D919C911397009738
:1057A000B9F52D913C911197CD010296820F931F6F
:1057B00020919416309195162817390739F63097AD
:1057C00051F51092971610929616B0939516A093D5
:1057D0009416BCCFD383C28340815181840F951F1F
:1057E000C817D90761F44E5F5F4F88819981480FD0
:1057F000591F518340838A819B8193838283211522
:10580000310509F0B0CFF0939716E09396169ECF2E
:10581000FD01DC01C0CF13821282D7CF4F925F927D
:105820006F927F928F929F92AF92BF92CF92DF92B0
:10583000EF92FF920F931F93CF93DF938C0100970A
:1058400099F4CB01DF91CF911F910F91FF90EF90D1
:10585000DF90CF90BF90AF909F908F907F906F9090
:105860005F904F900C94E92AFC01E60FF71F9C0112
:1058700022503109E217F30708F4AEC0D901CD91E7
:10588000DC911197C617D70720F1C530D10578F004
:10589000CE0104978617970750F0C61BD70B2297A7
:1058A000C193D1936D937C93CF010E94852BC80146
:1058B000DF91CF911F910F91FF90EF90DF90CF90EC
:1058C000BF90AF909F908F907F906F905F904F9020
:1058D00008955B01AC1ABD0A4C018C0E9D1EA0916F
:1058E0009616B0919716512C412CF12CE12C109763
:1058F00031F580919416909195168815990509F0C7
:105900005CC04616570608F058C080910A02909174
:105910000B02009741F48DB79EB740910E02509153
:105920000F02841B950BE817F90708F055C0F09398
:105930009516E0939416F90171836083B8CF8D9129
:105940009C91119712966C90129713967C901397D6
:10595000A815B90559F56C0142E0C40ED11CCA1452
:10596000DB0420F1AC014A195B09DA0112961597A4
:1059700080F06282738251834083D9016D937C935E
:10598000E114F10471F0D7011396FC93EE93129792
:105990008ECF22968C0F9D1FF90191838083F30196
:1059A000EFCFF0939716E093961681CF48165906DD
:1059B00008F42C017D01D3019ACFCB010E94E92A82
:1059C0007C01009749F0AE01B8010E94F42CC80197
:1059D0000E94852B87016BCF10E000E068CF81E04B
:1059E00090E0F8940C94E12FFB01DC0102C00190DF
:1059F0000D9241505040D8F70895DC0101C06D93DD
:105A000041505040E0F70895FB01DC0101900D92F8
:105A10000020E1F708950F931F93CF93DF93CDB745
:105A2000DEB72E970FB6F894DEBF0FBECDBF0E893E
:105A30001F8986E08C831A8309838FEF9FE79E83FB
:105A40008D83AE01465E5F4F688D798DCE010196E4
:105A50000E943B2D2F813885020F131FF801108201
:105A60002E960FB6F894DEBF0FBECDBFDF91CF915B
:105A70001F910F9108952F923F924F925F926F92D4
:105A80007F928F929F92AF92BF92CF92DF92EF92CE
:105A9000FF920F931F93CF93DF9300D000D000D0DD
:105AA0001F921F92CDB7DEB77C013B018A01FC013A
:105AB00017821682838181FFDDC1CE0101965C01D0
:105AC000F7019381F30193FD859193FF81913F014C
:105AD000882309F453C1853239F493FD859193FFEE
